:100000000C942B0D0C94580D0C94580D0C94580D09
:100010000C94580D0C94580D0C94580D0C94580DCC
:100020000C94580D0C94580D0C94580D0C94580DBC
:100030000C94580D0C94580D0C94580D0C94580DAC
:100040000C94580D0C94580D0C94580D0C94580D9C
:100050000C94580D0C94580D0C94580D0C94A52824
:100060000C94580D0C946C270C94F3270C94580D99
:100070000C94580D0C94580D0C94580D0C94580D6C
:100080000C94580D0C94580D0C94580D0C94580D5C
:100090000C94580D0C94580D0C94580D0C94580D4C
:1000A0000C94580D0C94580D0C94580D0C94580D3C
:1000B0000C94580D0C94580D0C94580D0C94580D2C
:1000C0000C94580D0C94580D0C94580D0C94580D1C
:1000D0000C94580D0C94580D0C94580D0C94580D0C
:1000E0000C94580D05A84CCDB2D44EB93836A9029F
:1000F0000C50B9918688083CA6AAAA2ABE00000026
:10010000803F080C205F000000000000000000009D
:1001100000000000202020202020002000000028D7
:100120005050000000000000000000002828FC28BB
:1001300050FC50500000002078A8A0603028A8F0A3
:100140002000000048A8B0502834544800000000A7
:1001500020505078A8A8906C00000040408000001B
:10016000000000000000000408101010101010081B
:10017000040000402010101010101020400000005B
:100180000020A87070A8200000000000202020F8A7
:1001900020202000000000000000000000000040BF
:1001A00040800000000000F8000000000000000097
:1001B00000000000000000400000000810101020A7
:1001C00020404040800000007088888888888870BF
:1001D000000000002060202020202070000000008F
:1001E00070888810204080F8000000007088083077
:1001F00008088870000000001030505090781018E7
:1002000000000000F88080F00808887000000000FE
:10021000709080F08888887000000000F8901020AE
:100220002020202000000000708888708888887056
:10023000000000007088888878084870000000007E
:10024000000020000000002000000000000000204E
:1002500000000020200000040810204020100804A6
:10026000000000000000F80000F80000000000405E
:10027000201008040810204000000000708888103A
:100280002020002000000000708898A8A8B880787E
:100290000000000020203050507848CC00000000C2
:1002A000F0484870484848F0000000007888808096
:1002B0008080887000000000F0484848484848F0B6
:1002C00000000000F8485070504048F8000000005E
:1002D000F8485070504040E00000000038488080EE
:1002E0009C88483000000000CC484878484848CCFA
:1002F00000000000F8202020202020F8000000004E
:100300007C10101010101090E0000000EC485060BD
:10031000505048EC00000000E0404040404044FCA9
:1003200000000000D8D8D8D8A8A8A8A800000000CD
:10033000DC486868585848E80000000070888888E1
:100340008888887000000000F0484870404040E015
:10035000000000007088888888E898701800000005
:10036000F0484870504848EC0000000078888060F1
:10037000100888F000000000F8A82020202020703D
:1003800000000000CC4848484848483000000000C1
:10039000CC4848505030202000000000A8A8A87089
:1003A0005050505000000000D8505020205050D8DD
:1003B00000000000D85050202020207000000000D5
:1003C000F8901020204048F800000038202020201D
:1003D000202020203800004040402020101010082D
:1003E000000000701010101010101010700000208D
:1003F00050000000000000000000000000000000AD
:100400000000000000FC00200000000000000000D0
:1004100000000000000000304838483C00000000A8
:10042000C04040704848487000000000000000389C
:100430004840403800000000180808384848483C48
:100440000000000000000030487840380000000044
:100450001C20207820202078000000000000003CB4
:100460004830407844380000C0404070484848EC6C
:10047000000000002000006020202070000000002C
:10048000100000301010101010E00000C040405C60
:10049000507048EC00000000E0202020202020F8D0
:1004A00000000000000000F0A8A8A8A800000000BC
:1004B000000000F0484848EC000000000000003058
:1004C0004848483000000000000000F048484870EC
:1004D00040E000000000003848484838081C000090
:1004E000000000D8604040E00000000000000078FC
:1004F00040300878000000000020207020202018E4
:1005000000000000000000D84848483C00000000FF
:10051000000000EC4850302000000000000000A85F
:10052000A870505000000000000000D8502050D8A3
:1005300000000000000000EC4850302020C0000007
:100540000000007810202078000000181010102003
:1005500010101010180010101010101010101010A3
:10056000101000602020201020202020600040A4D7
:10057000180000000000000000001010205F0000C4
:10058000000000000000000000000000000000006B
:10059000000000000000000000000000000000005B
:1005A000000007000F800F800F800F800F80070072
:1005B000070000000000070007000700000000001F
:1005C0000E380E380E380E380630000000000000DD
:1005D000000000000000000000000000000000001B
:1005E0000C300C300C307FFE7FFE0C300C300C30A9
:1005F0000C307FFE7FFE0C300C300C300000000011
:10060000024002400FF81FF81A401A401FF00FF87E
:10061000025802581FF81FF002400240000000007C
:10062000000000000E100E300E7000E001C00380CC
:1006300007000E700C700870000000000000000041
:1006400000000F001980198019800F000F080F9803
:1006500019F818F018E019F00F98000000000000D9
:1006600000000700070007000E0000000000000067
:10067000000000000000000000000000000000007A
:10068000000000F001C0038007000E000E000E0005
:100690000E000700038001C000F000000000000011
:1006A00000000F00038001C000E0007000700070C7
:1006B000007000E001C003800F0000000000000097
:1006C000000001801188099007E007E03FFC3FFC33
:1006D00007E007E009901188018000000000000099
:1006E0000000000000000180018001800FF00FF089
:1006F0000180018001800000000000000000000077
:1007000000000000000000000000000000000000E9
:10071000000000000700070007000E0000000000B6
:100720000000000000000000000000001FF81FF89B
:1007300000000000000000000000000000000000B9
:1007400000000000000000000000000000000000A9
:100750000000000007000700070000000000000084
:10076000000000020006000E001C0038007000E0CF
:1007700001C0038007000E001C0000000000000004
:1007800000000FF01C381C781CF81CF81DB81DB8B0
:100790001F381F381E381C380FF000000000000002
:1007A00000000180018003801F801F800380038080
:1007B00003800380038003801FF00000000000001E
:1007C00000000FE01C701C380038007000E001C011
:1007D000038007000E381C381FF8000000000000DE
:1007E00000000FE01C701C380038007003C003C00C
:1007F000007000381C381C700FE000000000000082
:10080000000000E001E003E006E00CE018E01FF863
:100810001FF800E000E000E003F800000000000026
:1008200000001FF81C001C001C001C001FE01FF033
:10083000007800381C381C700FE000000000000039
:10084000000003E007000E001C001C001FF01FF852
:100850001C381C381C381C380FF000000000000049
:1008600000001FFC1C1C1C1C1C1C001C0038007001
:1008700000E001C00380038003800000000000004E
:1008800000000FF01C381C381C381F3807E007E048
:100890001CF81C381C381C380FF000000000000049
:1008A00000000FF01C381C381C381C381FF80FF8DB
:1008B00000380038007000E007C0000000000000B1
:1008C000000000000000038003800380000000009F
:1008D000038003800380000000000000000000008F
:1008E000000000000000038003800380000000007F
:1008F0000380038003800700000000000000000068
:10090000007000E001C0038007000E001C001C0006
:100910000E000700038001C000E00070000000002E
:1009200000000000000000003FFC3FFC0000000051
:100930003FFC3FFC00000000000000000000000041
:100940001C000E000700038001C000E00070007072
:1009500000E001C0038007000E001C000000000042
:1009600003C00FF01E7818380038007000E001C096
:1009700001C00000000001C001C001C00000000073
:100980000FF81C1C1C1C1C1C1C1C1CFC1CFC1CFC38
:100990001CFC1C001C001C001FF007F800000000DD
:1009A000000003C007E00E701C381C381C381C38CF
:1009B0001FF81C381C381C381C38000000000000D0
:1009C00000001FF00E380E380E380E380FF00FF002
:1009D0000E380E380E380E381FF0000000000000F0
:1009E000000007F00E381C381C001C001C001C0006
:1009F0001C001C001C380E3807F00000000000002E
:100A000000001FE00E700E380E380E380E380E380B
:100A10000E380E380E380E701FE000000000000087
:100A200000001FF80E180E080E000E300FF00FF029
:100A30000E300E000E080E181FF800000000000017
:100A400000001FF80E180E080E000E300FF00FF009
:100A50000E300E000E000E001F000000000000000F
:100A6000000007F00E381C381C381C001C001C004D
:100A70001CF81C381C380E3807F800000000000075
:100A800000001C701C701C701C701C701FF01FF08C
:100A90001C701C701C701C701C700000000000009A
:100AA00000000FE003800380038003800380038045
:100AB00003800380038003800FE00000000000003B
:100AC000000001FC00700070007000700070007089
:100AD00038703870387038700FE000000000000087
:100AE00000001E380E380E700EE00FC00F800F8011
:100AF0000FC00EE00E700E381E380000000000001F
:100B000000001F000E000E000E000E000E000E0072
:100B10000E000E080E180E381FF80000000000002E
:100B200000001C1C1E3C1F7C1FFC1FFC1DDC1C9CB1
:100B30001C1C1C1C1C1C1C1C1C1C0000000000009D
:100B400000001C1C1C1C1E1C1F1C1F9C1DDC1CFCF4
:100B50001C7C1C3C1C1C1C1C1C1C000000000000FD
:100B6000000003E007F00E381C1C1C1C1C1C1C1C85
:100B70001C1C1C1C0E3807F003E0000000000000E5
:100B800000001FF00E380E380E380E380FF00FF040
:100B90000E000E000E000E001F00000000000000FE
:100BA000000003E00F780E381C1C1C1C1C1C1C1CB5
:100BB0001C7C1CFC0FF80FF8003800FC0000000043
:100BC00000001FF00E380E380E380E380FF00FF000
:100BD0000E700E380E380E381E380000000000006F
:100BE00000000FF01C381C381C381C000FE007F008
:100BF00000381C381C381C380FF0000000000000C2
:100C000000001FFC19CC11C401C001C001C001C00B
:100C100001C001C001C001C007F0000000000000D9
:100C200000001C701C701C701C701C701C701C70F0
:100C30001C701C701C701C700FE000000000000095
:100C400000001C701C701C701C701C701C701C70D0
:100C50001C701C700EE007C0038000000000000044
:100C600000001C1C1C1C1C1C1C1C1C1C1C9C1C9CFC
:100C70001C9C0FF80FF807700770000000000000C0
:100C800000001C701C701C700EE007C00380038005
:100C900007C00EE01C701C701C70000000000000FB
:100CA00000001C701C701C701C701C700EE007C0D3
:100CB00003800380038003800FE000000000000039
:100CC00000001FF81C381838107000E001C00380C5
:100CD00007000E081C181C381FF800000000000058
:100CE000000007F0070007000700070007000700E3
:100CF000070007000700070007F0000000000000E1
:100D00000000100018001C000E000700038001C046
:100D100000E000700038001C000700000000000028
:100D2000000007F00070007000700070007000702C
:100D3000007000700070007007F0000000000000FC
:100D4000018003C007E00E701C38000000000000A6
:100D50000000000000000000000000000000000093
:100D60000000000000000000000000000000000083
:100D7000000000000000000000007FFF7FFF000077
:100D800000001C001C00070007000000000000001D
:100D90000000000000000000000000000000000053
:100DA000000000000000000000000FE00070007074
:100DB0000FF01C701C701C700FD8000000000000A9
:100DC00000001E000E000E000E000FF00E380E3850
:100DD0000E380E380E380E381BF0000000000000F0
:100DE000000000000000000000000FE01C701C70FC
:100DF0001C001C001C701C700FE0000000000000B4
:100E0000000000F80070007000700FF01C701C7083
:100E10001C701C701C701C700FD8000000000000BB
:100E2000000000000000000000000FE01C701C70BB
:100E30001FF01C001C701C700FE000000000000080
:100E4000000003E007700770070007001FE01FE0C5
:100E500007000700070007001FC000000000000097
:100E6000000000000000000000000FD81C701C7083
:100E70001C701C700FF007F000701C700FE0000079
:100E800000001E000E000E000E000EF00F380F388E
:100E90000E380E380E380E381E38000000000000E4
:100EA000000001C001C001C000000FC001C001C0AE
:100EB00001C001C001C001C00FF800000000000027
:100EC0000000007000700070000003F000700070FF
:100ED00000700070007000701C700CF007E00000E3
:100EE00000001E000E000E000E000E380E700EE008
:100EF0000FC00EE00E700E381E380000000000001B
:100F000000000FC001C001C001C001C001C001C08C
:100F100001C001C001C001C00FF8000000000000C6
:100F2000000000000000000000001FF81C9C1C9C3A
:100F30001C9C1C9C1C9C1C9C1C9C00000000000019
:100F4000000000000000000000001FE01C701C708A
:100F50001C701C701C701C701C70000000000000D5
:100F6000000000000000000000000FE01C701C707A
:100F70001C701C701C701C700FE000000000000052
:100F8000000000000000000000001BF00E380E38CA
:100F90000E380E380E380FF00E000E001F00000045
:100FA000000000000000000000001FB038E038E042
:100FB00038E038E038E01FE000E000E001F0000039
:100FC000000000000000000000001EF00FF80F38C5
:100FD0000E000E000E000E001F00000000000000BA
:100FE000000000000000000000000FE01C301C307A
:100FF0000F8003E0187018700FE000000000000080
:10100000000000000100030007001FF007000700B8
:10101000070007000770077003E0000000000000F1
:10102000000000000000000000001C701C701C701C
:101030001C701C701C701C700FD800000000000099
:10104000000000000000000000001C701C701C70FC
:101050001C701C700EE007C0038000000000000040
:10106000000000000000000000001C1C1C1C1C1CD8
:101070001C9C1C9C0FF8077007700000000000000B
:10108000000000000000000000001CE01CE00FC099
:10109000078007800FC01CE01CE00000000000007B
:1010A000000000000000000000000E380E380E386E
:1010B0000E380E3807F003E000E001C01F8000008A
:1010C000000000000000000000001FE018E011C058
:1010D000038007000E201C601FE0000000000000DD
:1010E000000001F803800380038007001C001C003F
:1010F000070003800380038001F800000000000067
:1011000001C001C001C001C001C001C001C001C0D7
:1011100001C001C001C001C001C001C00000000049
:1011200000001F8001C001C001C000E0003800388D
:1011300000E001C001C001C01F80000000000000ED
:1011400000001F1C3B9C39DC38F800000000000048
:10115000000000000000000000000000000020323D
:10116000300A000000000000000000FFFE0001FF48
:10117000FF0003FFFF8001FFFF600CFFFEF01E0079
:1011800001F83F0001F83F0001F83F0001F83F007F
:1011900001F83F0001F83F0001F83F0001F83F006F
:1011A00001F83F0001F83F0001F83F0001F83F005F
:1011B00001F83F0001F83E000078380000182000D8
:1011C00000080000000020000000380000183E0069
:1011D00000783F0001F83F0001F83F0001F83F00B0
:1011E00001F83F0001F83F0001F83F0001F83F001F
:1011F00001F83F0001F83F0001F83F0001F83F000F
:1012000001F83F0001F83F0001F81E0000F00CFF5C
:10121000FE6001FFFF0003FFFF8001FFFF0000FFF2
:10122000FE000000000000000000000000000000C0
:1012300000000000000000000000000000000000AE
:101240000060000000F0000001F8000001F800005C
:1012500001F8000001F8000001F8000001F80000AA
:1012600001F8000001F8000001F8000001F800009A
:1012700001F8000001F8000001F8000001F800008A
:1012800000780000001800000008000000000000C6
:1012900000000000001800000078000001F80000C5
:1012A00001F8000001F8000001F8000001F800005A
:1012B00001F8000001F8000001F8000001F800004A
:1012C00001F8000001F8000001F8000001F800003A
:1012D00001F8000000F000000060000000000000C5
:1012E00000000000000000000000000000000000FE
:1012F0000000000000000000000000FFFE0001FFF1
:10130000FF0003FFFF8001FFFF6000FFFEF0000011
:1013100001F8000001F8000001F8000001F80000E9
:1013200001F8000001F8000001F8000001F80000D9
:1013300001F8000001F8000001F8000001F80000C9
:1013400001F8000001F80000007801FFFE1803FF1B
:10135000FF880FFFFFE027FFFFC039FFFF003E00BF
:1013600000003F0000003F0000003F0000003F0081
:1013700000003F0000003F0000003F0000003F0071
:1013800000003F0000003F0000003F0000003F0061
:1013900000003F0000003F0000001E0000000CFFA6
:1013A000FE0001FFFF0003FFFF8001FFFF0000FFC1
:1013B000FE0000000000000000000000000000002F
:1013C000000000FFFE0001FFFF0003FFFF8001FFA0
:1013D000FF6000FFFEF0000001F8000001F80000CF
:1013E00001F8000001F8000001F8000001F8000019
:1013F00001F8000001F8000001F8000001F8000009
:1014000001F8000001F8000001F8000001F80000F8
:10141000007801FFFE1803FFFF880FFFFFE007FFC2
:10142000FFC001FFFF1800000078000001F8000075
:1014300001F8000001F8000001F8000001F80000C8
:1014400001F8000001F8000001F8000001F80000B8
:1014500001F8000001F8000001F8000001F80000A8
:1014600001F8000000F000FFFE6001FFFF0003FF35
:10147000FF8001FFFF0000FFFE00000000000000F1
:10148000000000000000000000000000000000005C
:10149000000000000000000000600C0000F01E00D2
:1014A00001F83F0001F83F0001F83F0001F83F005C
:1014B00001F83F0001F83F0001F83F0001F83F004C
:1014C00001F83F0001F83F0001F83F0001F83F003C
:1014D00001F83F0001F83E00007839FFFE1823FFB5
:1014E000FF880FFFFFE007FFFFC001FFFF180000AC
:1014F0000078000001F8000001F8000001F8000089
:1015000001F8000001F8000001F8000001F80000F7
:1015100001F8000001F8000001F8000001F80000E7
:1015200001F8000001F8000001F8000000F00000E0
:10153000006000000000000000000000000000004B
:10154000000000000000000000000000000000009B
:10155000000000FFFE0001FFFF0003FFFF8001FF0E
:10156000FF000CFFFE001E0000003F0000003F00D7
:1015700000003F0000003F0000003F0000003F006F
:1015800000003F0000003F0000003F0000003F005F
:1015900000003F0000003F0000003F0000003E0050
:1015A000000039FFFE0023FFFF800FFFFFE007FF71
:1015B000FFC001FFFF1800000078000001F80000E4
:1015C00001F8000001F8000001F8000001F8000037
:1015D00001F8000001F8000001F8000001F8000027
:1015E00001F8000001F8000001F8000001F8000017
:1015F00001F8000000F000FFFE6001FFFF0003FFA4
:10160000FF8001FFFF0000FFFE000000000000005F
:101610000000000000000000000000FFFE0001FFCD
:10162000FF0003FFFF8001FFFF000CFFFE001E0014
:1016300000003F0000003F0000003F0000003F00AE
:1016400000003F0000003F0000003F0000003F009E
:1016500000003F0000003F0000003F0000003F008E
:1016600000003F0000003E00000039FFFE0023FFA5
:10167000FF800FFFFFE027FFFFC039FFFF183E008C
:1016800000783F0001F83F0001F83F0001F83F00FB
:1016900001F83F0001F83F0001F83F0001F83F006A
:1016A00001F83F0001F83F0001F83F0001F83F005A
:1016B00001F83F0001F83F0001F81E0000F00CFFA8
:1016C000FE6001FFFF0003FFFF8001FFFF0000FF3E
:1016D000FE0000000000000000000000000000000C
:1016E000000000FFFE0001FFFF0003FFFF8001FF7D
:1016F000FF6000FFFEF0000001F8000001F80000AC
:1017000001F8000001F8000001F8000001F80000F5
:1017100001F8000001F8000001F8000001F80000E5
:1017200001F8000001F8000001F8000001F80000D5
:101730000078000000180000000800000000000011
:1017400000000000001800000078000001F8000010
:1017500001F8000001F8000001F8000001F80000A5
:1017600001F8000001F8000001F8000001F8000095
:1017700001F8000001F8000001F8000001F8000085
:1017800001F8000000F00000006000000000000010
:101790000000000000000000000000000000000049
:1017A0000000000000000000000000FFFE0001FF3C
:1017B000FF0003FFFF8001FFFF600CFFFEF01E0033
:1017C00001F83F0001F83F0001F83F0001F83F0039
:1017D00001F83F0001F83F0001F83F0001F83F0029
:1017E00001F83F0001F83F0001F83F0001F83F0019
:1017F00001F83F0001F83E00007839FFFE1823FF92
:10180000FF880FFFFFE027FFFFC039FFFF183E00F2
:1018100000783F0001F83F0001F83F0001F83F0069
:1018200001F83F0001F83F0001F83F0001F83F00D8
:1018300001F83F0001F83F0001F83F0001F83F00C8
:1018400001F83F0001F83F0001F81E0000F00CFF16
:10185000FE6001FFFF0003FFFF8001FFFF0000FFAC
:10186000FE0000000000000000000000000000007A
:10187000000000FFFE0001FFFF0003FFFF8001FFEB
:10188000FF600CFFFEF01E0001F83F0001F83F0072
:1018900001F83F0001F83F0001F83F0001F83F0068
:1018A00001F83F0001F83F0001F83F0001F83F0058
:1018B00001F83F0001F83F0001F83F0001F83E0049
:1018C000007839FFFE1823FFFF880FFFFFE007FFB6
:1018D000FFC001FFFF1800000078000001F80000C1
:1018E00001F8000001F8000001F8000001F8000014
:1018F00001F8000001F8000001F8000001F8000004
:1019000001F8000001F8000001F8000001F80000F3
:1019100001F8000000F000FFFE6001FFFF0003FF80
:10192000FF8001FFFF0000FFFE000000000000003C
:10193000000000002100240027002A002D003000B4
:10194000330001010000040107010A010000220028
:10195000250028002B002E00310034000201000079
:10196000050108010B0100002000230026002900CA
:101970002C002F00320000010000030106010901C4
:1019800005050505070508080808020202020A0AFB
:101990000808040404040101010101010101030319
:1019A000030303030303040707070C0C0C0C0C0CC4
:1019B0000C0C0202020206060606060606060B0BC1
:1019C0000B0B0B0B0B0B0102102020080810204002
:1019D00010204080020102010804020101020408F3
:1019E0001020408080402010080402018004020181
:1019F00080402010080402010804020101020408CA
:101A00001020408001020408102040800000090AD4
:101A100002080B0C0D070603040100000000000083
:101A200000000000000000000000000000000000B6
:101A3000000000000000000011100F000000000076
:101A40000000000000000000000000000000000096
:101A500000005010A62711241FBECFEFD1E2DEBF39
:101A6000CDBF00E00CBF14E0A0E0B2E0ECECFCE580
:101A700000E00BBF02C007900D92A239B107D9F761
:101A80001BBE17E0A2E9B4E001C01D92AE37B1075A
:101A9000E1F71AE1C6E5DAE104C02297FE010E94EF
:101AA000292EC235D107C9F70E9496280C94642EBE
:101AB0000C940000FB01DC0104C08D9101908019A1
:101AC00021F441505040C8F7881B990B0895AEE0AF
:101AD000B0E0EDE6FDE00C943B2E0E891F8986E018
:101AE0008C831A8309838FEF9FE79E838D839E01EA
:101AF000265E3F4FCE010196688D798DA9010E9427
:101B00008B0D2F813885020F131FF80110822E963E
:101B1000E4E00C94572EABE0B0E0E1E9FDE00C947A
:101B20002D2E3C012B015A01FC0117821682838164
:101B300081FD03C06FEF7FEFC6C19AE0892E1E01C1
:101B40000894211C311CF3012381F20123FD8591AE
:101B500023FF81912F01882309F4B2C1853239F422
:101B600023FD859123FF81912F01853229F490E097
:101B7000B3010E947E0FE7CF982FFF24EE24992413
:101B8000FFE1FF15D0F09B3269F09C3228F49032CF
:101B900059F0933291F40EC09D3249F0903369F4BC
:101BA00041E024C052E0F52A84E0F82A28C098E0F9
:101BB000F92A25C0E0E1FE2A22C0F7FC29C0892FBE
:101BC00080538A3070F4F6FE05C0989C902C112446
:101BD000980E15C0E89CE02C1124E80EF0E2FF2AD4
:101BE0000EC09E3229F4F6FC6BC140E4F42A07C013
:101BF0009C3619F450E8F52A02C0983649F4F201EF
:101C000023FD959123FF91912F01992309F0B8CFDE
:101C1000892F8554833018F08052833038F444E0A3
:101C200050E0A40EB51E5FE359830FC0933631F028
:101C3000933779F0933509F056C020C0F5018081C3
:101C4000898342E050E0A40EB51E610101E010E07E
:101C500012C0F501C080D180F6FC03C06FEF7FEFAA
:101C600002C0692D70E042E050E0A40EB51EC6012E
:101C70000E94730F8C015FE7F52214C0F501C0804C
:101C8000D180F6FC03C06FEF7FEF02C0692D70E0DA
:101C900042E050E0A40EB51EC6010E94680F8C0100
:101CA00050E8F52AF3FE07C01AC080E290E0B301C5
:101CB0000E947E0FEA948E2D90E008171907A8F372
:101CC0000EC0F601F7FC8591F7FE81916F0190E05F
:101CD000B3010E947E0FE110EA94015010400115FB
:101CE000110579F7EAC0943611F0993669F5F7FED7
:101CF00008C0F501208131814281538184E090E068
:101D00000AC0F501808191819C01442737FD4095EF
:101D1000542F82E090E0A80EB91E9FE6F92257FFEB
:101D200009C050954095309521953F4F4F4F5F4FDB
:101D3000E0E8FE2ACA01B901A1012AE030E00E94D0
:101D4000AA0FD82ED21840C0953729F41F2D1F7E18
:101D50002AE030E01DC01F2D197F9F3661F09037BB
:101D600020F4983509F0ACC00FC0903739F098379F
:101D700009F0A6C004C028E030E00AC0106114FDDC
:101D8000146020E130E004C014FD166020E132E070
:101D900017FF08C0F501608171818281938144E061
:101DA00050E008C0F50180819181BC0180E090E0A5
:101DB00042E050E0A40EB51EA1010E94AA0FD82E49
:101DC000D2188FE7F82EF122F6FE0BC05EEFF52257
:101DD000D91438F4F4FE07C0F2FC05C08FEEF822E7
:101DE00002C01D2D01C0192DF4FE0DC0FE01ED0D28
:101DF000F11D8081803319F499EEF92208C01F5F2C
:101E0000F2FE05C003C08F2D867809F01F5F0F2DED
:101E1000F3FC14C0F0FE0FC01E1510F09D2C0BC07B
:101E20009D2C9E0C911A1E2D06C080E290E0B301FD
:101E30000E947E0F1F5F1E15C0F304C01E1510F414
:101E4000E11A01C0EE2404FF0FC080E390E0B3016B
:101E50000E947E0F02FF1DC001FD03C088E790E0D5
:101E60000EC088E590E00BC0802F867891F001FFCE
:101E700002C08BE201C080E2F7FC8DE290E0B3018A
:101E80000E947E0F06C080E390E0B3010E947E0FA7
:101E90009A94D914C0F3DA94F101ED0DF11D80810B
:101EA00090E0B3010E947E0FDD20A9F706C080E21A
:101EB00090E0B3010E947E0FEA94EE20C1F743CE7A
:101EC000F30166817781CB012B96E2E10C94492ED8
:101ED000FC010590615070400110D8F780959095F5
:101EE0008E0F9F1F0895FC016150704001900110FA
:101EF000D8F7809590958E0F9F1F08950F931F938D
:101F0000CF93DF938C01EB018B8181FF1BC082FF9C
:101F10000DC02E813F818C819D812817390764F483
:101F2000E881F9810193F983E88306C0E885F985A2
:101F3000802F1995892B31F48E819F8101969F8383
:101F40008E8302C00FEF1FEFC801DF91CF911F9169
:101F50000F910895FA01AA27283051F1203181F11B
:101F6000E8946F936E7F6E5F7F4F8F4F9F4FAF4FA1
:101F7000B1E03ED0B4E03CD0670F781F891F9A1FB4
:101F8000A11D680F791F8A1F911DA11D6A0F711D68
:101F9000811D911DA11D20D009F468943F912AE074
:101FA000269F11243019305D3193DEF6CF0108955C
:101FB000462F4770405D4193B3E00FD0C9F7F6CF8D
:101FC000462F4F70405D4A3318F0495D31FD405255
:101FD000419302D0A9F7EACFB4E0A69597958795EB
:101FE00077956795BA95C9F70097610571050895CA
:101FF0009B01AC010A2E0694579547953795279576
:10200000BA95C9F7620F731F841F951FA01D08950D
:10201000EF92FF920F931F93CF93DF938C019B015D
:10202000EA0183E1E82EF12C37FD30C02231310581
:102030006CF5D7FD2BC0C131D10544F5C217D307CC
:102040002CF1CE010197821B930B62E070E00E949D
:10205000D72D620F731F6E9DF0016F9DF00D7E9D59
:10206000F00D1124E956FD4F808191818017910771
:1020700079F0C217D30751F00817190718F4EB01CC
:102080002197D2CF9B012F5F3F4FCECFE0E0F0E012
:10209000CF01DF91CF911F910F91FF90EF900895A5
:1020A000CF92DF92EF92FF920F931F9382E994E019
:1020B00063E049E250E028E230E007E210E076E237
:1020C000E72EF12CCC24DD240E9470241F910F9167
:1020D000FF90EF90DF90CF9008956F927F928F9254
:1020E0009F92AF92BF92CF92DF92EF92FF920F93A7
:1020F0001F93DF93CF93CDB7DEB7C055D0400FB657
:10210000F894DEBF0FBECDBF28EE33E040E050E0D4
:102110000E94EA2D922E832E742E652E622F732F2D
:10212000842F952F2CE330E040E050E00E94EA2D10
:10213000F22EE32ED42EC52E8DB79EB70A970FB67A
:10214000F8949EBF0FBE8DBF0DB71EB70F5F1F4F18
:102150005E010894A11CB11CEDB7FEB7B282A1824A
:1021600086E092E0F80193838283622F732F842F9D
:10217000952F2CE330E040E050E00E94EA2DF8017A
:10218000358324836F2D7E2D8D2D9C2D2CE330E007
:1021900040E050E00E94EA2DF80177836683692DC4
:1021A000782D872D962D2CE330E040E050E00E9402
:1021B000EA2DF801718760870E94670D8DB79EB781
:1021C0000A960FB6F8949EBF0FBE8DBFE2E9EE2EC1
:1021D000E4E0FE2EC70162E071E00E940F20C7011B
:1021E00040E154E860E070E00E94D31CC70160EE5B
:1021F0007FEF0E94CF1CC701B50140ED50E02AECF3
:1022000030E000E010E00E94E721C7016AE775E0D6
:102210000E940F20C05BDF4F0FB6F894DEBF0FBEE9
:10222000CDBFCF91DF911F910F91FF90EF90DF9085
:10223000CF90BF90AF909F908F907F906F900895B8
:102240006F927F928F929F92AF92BF92CF92DF92C6
:10225000EF92FF920F931F936C014B015A013901CA
:10226000A801662757FD6095762F0E94D31CC601F2
:10227000B7010E94CF1C82E690E0889EA001899E53
:10228000500D989E500D1124415650409501F4E098
:10229000220F331FFA95E1F72A0D3B1D20513040E4
:1022A000C601B30100E010E00E94E7211F910F91E9
:1022B000FF90EF90DF90CF90BF90AF909F908F9066
:1022C0007F906F900895EF92FF920F931F93DB0121
:1022D0001D962D913C911E9722303105E1F023305F
:1022E00031053CF42115310589F02130310539F5EE
:1022F0000AC024303105C9F0243031058CF0253076
:102300003105E9F417C00FE110E007C000E010E06C
:10231000E0E1F4E818C000E010E0EFEFFFEF13C0D9
:1023200000E014E0E0EEF7E00EC000E110E0EFEFB7
:10233000F7E009C000E010E8E0E0F8EF04C000E0DA
:1023400018EFE0E0F0E01F966D917C915097519668
:102350004D915C91529712969D017F010E94201130
:102360001F910F91FF90EF9008950F931F93DF93AC
:10237000CF93CDB7DEB728970FB6F894DEBF0FBE68
:10238000CDBFFE01319688E0DF011D928A95E9F705
:102390008AED93E063EC74E046E050E00E945A0D51
:1023A000009759F080EE93E063EC74E046E050E073
:1023B0000E945A0D009709F06BC0EFECF4E0809199
:1023C000CF049091D0048138910509F43296808130
:1023D00091818056934009F05BC08F010C5F1F4FC5
:1023E000848187FF03C08F010B5F1F4FF801208599
:1023F0003185C901892F990F990B85958595079787
:1024000009F046C0808186958D5F8770823008F024
:102410003FC0C90160E070E040E150E00E94081058
:10242000FC010097A9F180E69AEEA0E0B0E0818778
:102430009287A387B487858596858430910534F487
:102440008130910544F4892B19F01DC00597D9F40A
:1024500081E090E016C0D8011A968C91837090E0CC
:102460008230910549F08330910519F0019759F4B4
:1024700006C082E090E005C083E090E002C084E006
:1024800090E09687858782E994E0BF010E946311FE
:1024900028960FB6F894DEBF0FBECDBFCF91DF9167
:1024A0001F910F9108954F925F926F927F928F923A
:1024B0009F92AF92BF92CF92DF92EF92FF920F93D3
:1024C0001F93CF93DF930E94AA14BC01009721F0C1
:1024D00080E090E00E94B5110E94ED286093C30651
:1024E0007093C4068093C5069093C6062091CB06D0
:1024F0003091CC064091CD065091CE06261B370B6D
:10250000480B590B69E0220F331F441F551F6A9572
:10251000D1F7CA01B90128EE33E040E050E00E9453
:10252000EA2D3093D0062093CF0601E0213030070A
:1025300044F080E092E0821B930B9093D00680934E
:10254000CF066091CF067091D0068DE00E94C5291C
:102550002091C3063091C4064091C5065091C6062D
:102560008091CB069091CC06A091CD06B091CE067D
:1025700079018A01E81AF90A0A0B1B0BD801C70175
:10258000885E9340A040B04060F02093CB0630932B
:10259000CC064093CD065093CE06CA01B9010E94E5
:1025A0006D102091C3063091C4064091C50650912C
:1025B000C6068091C7069091C806B901681B790BC1
:1025C0006B01EE24D7FCE094FE2C74E6C716D10410
:1025D000E104F1040CF451C02093C7063093C806FF
:1025E0004093C9065093CA06C0EAD2E000E010E06A
:1025F00023E1422E512C95E0692E712C80E6882E25
:102600008AEE982EA12CB12C2C813D81211531050B
:1026100071F188819981AA81BB818C199D09AE09CC
:10262000BF0988839983AA83BB83181619061A06E3
:102630001B06ECF02530310539F41D821C8218820E
:1026400019821A821B8206C07D826C8288829982DE
:10265000AA82BB82049DB001059D700D149D700D72
:10266000112469567D4F82E994E00E9463110F5F47
:102670001F4F63960131110539F6DF91CF911F91FC
:102680000F91FF90EF90DF90CF90BF90AF909F9011
:102690008F907F906F905F904F9008950F931F934E
:1026A000CF93DF938DE061E00E94A52A8DE060E08A
:1026B0000E94582B88ED96E040E051EE60E070E01B
:1026C00026E00E94322688ED96E068E172E00E94E2
:1026D000832888ED96E06EE272E00E94832882E90A
:1026E00094E061E00E94B62282E994E06AE775E036
:1026F0000E940F2082E994E00E943A1C82E994E053
:1027000060E074E00E94CF1C82E994E040E050E079
:1027100060E070E00E94D31C82E994E060E070E029
:1027200040E050E02FE331E007EC10E00E94BD1DD7
:1027300088ED96E06AE472E00E9483280E940E15FC
:1027400080E092E066EE73E045E30E943415882352
:1027500039F488ED96E06AE672E00E948328FFCFA4
:1027600080E00E9475140E946C1488ED96E06AE87F
:1027700072E00E94832800E010E0C3E1D0E00C9FEB
:10278000B0010D9F700D1C9F700D112469567D4F77
:1027900082E994E00E9463110F5F1F4F0131110520
:1027A00071F70E94ED286093C7067093C806809366
:1027B000C9069093CA06DF91CF911F910F9108959A
:1027C0008091D40661E00E94582B78940895FF927E
:1027D0000F931F93082F162FF42EF8948091D40690
:1027E00060E00E94582B1F71102B1EBD0DB407FE18
:1027F000FDCFFEBC0DB407FEFDCF0E94E0131F917C
:102800000F91FF9008951F93182F282F30E0207606
:1028100030708091D50690E02817390799F080EA4A
:102820006FE143E00E94E713412F40764093D506C5
:1028300050E085E0559547958A95E1F780E86FE18E
:102840000E94E7131F9108950F931F93182F062FCF
:102850000E94031480E4612F402F0E94E7131F9110
:102860000F9108950F931F93182F072F0E94241480
:10287000812F8F5F602F0E9424141F910F91089564
:102880000F931F93182F062FF8948091D40660E0C1
:102890000E94582B802F8F71812B8EBD0DB407FEA7
:1028A000FDCF1EBC0DB407FEFDCF07FF04C01EBC4C
:1028B0000DB407FEFDCF1EB50E94E013812F1F91BE
:1028C0000F9108951F93182F0E94031480E0612F29
:1028D0000E9440141F91089588E30E946214682F9B
:1028E000626088E30E94241408951F93182F88E3E0
:1028F0000E946214682F616088E30E9424141123EF
:1029000019F481E08093D3061F9108950F931F93CC
:10291000CF93DF93EC018B01F8948091D40660E0B3
:102920000E94582B8AE38EBD0DB407FEFDCF09C06F
:102930001EBC0DB407FEFDCF8EB5F80181938F014B
:1029400021972097A9F70E94E013DF91CF911F9163
:102950000F9108950F931F93DF93CF9300D000D072
:10296000CDB7DEB789E30E946214882319F400E032
:1029700010E048C06091D6067091D70680E00E94B2
:10298000321486E090E0BE016F5F7F4F0E94861494
:1029900089819A819093D7068093D6062B813C81BA
:1029A000E091D106F091D2068D8187FD03C000E051
:1029B00010E00EC0245030408F010150104020170D
:1029C000310708F48901C80163EC74E00E948614A1
:1029D000F801ED53FB4F10826091D6067091D70637
:1029E0008CE06130780724F08CE06FEF7BE003C06F
:1029F000615070408CE00E94321480E86EE140E447
:102A00000E94E713C80126960FB6F894DEBF0FBEEA
:102A1000CDBFCF91DF911F910F91089585E361E0C4
:102A20000E94A52A85E361E00E94582B83E361E0C0
:102A30000E94A52A84E361E00E94A52A82E360E067
:102A40000E94A52A83E361E00E94582B83E360E0A3
:102A50000E94582B84E360E00E94582B80E58CBDD7
:102A60008DB581608DBD08951F93CF93DF93EB01EA
:102A7000142F9093D2068093D1060CB406FC02C0AA
:102A80000E940E151093D406812F61E00E94A52AA2
:102A90000E94E0138FEF60E04FEF0E94E71362E0C7
:102AA00070E080E090E00E945D2980E06DE10E948E
:102AB00040148823D1F31092D7061092D60688E0EE
:102AC00060E070E00E9432148CE060E070E00E94F0
:102AD00032148AE06FEF7BE00E94321484E060E001
:102AE0007CE00E94321486E06FEF71E10E943214A4
:102AF00080E00E94751488E26FE370E30E94321454
:102B000080E369EF77EF0E94321480EC6DE00E9461
:102B1000241481EC60E00E94241480E862EC42E31B
:102B20000E94E71386EC62E17CE00E94321484ECA0
:102B300062E10E9424148AEC6CED75E00E9432146C
:102B400084EE68810E94241485EE69810E94241419
:102B500082EE6A810E94241483EE6B810E94241409
:102B600080EE6C810E94241481EE6D810E942414F9
:102B700084ED60E10E94241486ED60E071E00E9423
:102B800032148AEE0E94621480FDFBCF8FE10E9416
:102B9000031480E86BE140EC0E94E71380E86FE1EA
:102BA00044E00E94E71382E70E946214863008F036
:102BB0008F5FDF91CF911F910895DC01542F283052
:102BC00009F47AC1293020F4213009F051C207C03C
:102BD000203109F489C1213109F04AC29CC11F96F4
:102BE0008C911F97843029F55896ED91FC91599757
:102BF00092969C919297613021F48081892B8083F9
:102C000004C080819095982390835A96ED91FC9111
:102C10005B97908193968C9193978095892380837D
:102C20005A96ED91FC915B97808193969C91939736
:102C30000AC05096ED91FC9151975E969C915E97DB
:102C4000613021F48081892B808304C0808190953C
:102C5000982390835896ED91FC91599792969C9168
:102C6000929757FF04C08081892B808304C08081A4
:102C70009095982390835A96ED91FC915B97908163
:102C800093968C9193978095892380835A96ED91A2
:102C9000FC915B97808193969C919397892B80837D
:102CA000252F332727FD30955896ED91FC915997A4
:102CB00092969C91929726FF04C08081892B8083F5
:102CC00004C080819095982390835A96ED91FC9151
:102CD0005B97908193968C919397809589238083BD
:102CE0005A96ED91FC915B97808193969C91939776
:102CF000892B80835896ED91FC91599792969C91DF
:102D0000929725FF04C08081892B808304C0808135
:102D10009095982390835A96ED91FC915B979081C2
:102D200093968C9193978095892380835A96ED9101
:102D3000FC915B97808193969C919397892B8083DC
:102D40005896ED91FC91599792969C91929724FFF9
:102D500004C08081892B808304C080819095982352
:102D600090835A96ED91FC915B97908193968C910C
:102D700093978095892380835A96ED91FC915B9778
:102D8000808193969C919397892B80835896ED919F
:102D9000FC91599792969C91929723FF04C0808151
:102DA000892B808304C080819095982390835A96C4
:102DB000ED91FC915B97908193968C919397809580
:102DC000892380835A96ED91FC915B97808193963D
:102DD0009C919397892B80835896ED91FC915997FC
:102DE00092969C91929722FF04C08081892B8083C8
:102DF00004C080819095982390835A96ED91FC9120
:102E00005B97908193968C9193978095892380838B
:102E10005A96ED91FC915B97808193969C91939744
:102E2000892B80835896ED91FC91599792969C91AD
:102E3000929721FF04C08081892B808304C0808108
:102E40009095982390835A96ED91FC915B97908191
:102E500093968C9193978095892380835A96ED91D0
:102E6000FC915B97808193969C919397892B8083AB
:102E70005896ED91FC91599792969C91929720FFCC
:102E800004C08081892B808304C080819095982321
:102E900090835A96ED91FC915B97908193968C91DB
:102EA00093978095892380835A96ED91FC915B9747
:102EB000808193969C912CC062B95296ED91FC91C1
:102EC000539790815F968C915F978095892380833B
:102ED0005296ED91FC91539780815F969C915F97FC
:102EE000892B808342B902C062B948B95296ED91EC
:102EF000FC91539790815F968C915F978095892381
:102F000080835296ED91FC91539780815F969C91BE
:102F1000892B80830895A59844B3262F332727FD56
:102F20003095C90180719070880F991F482B44BB60
:102F300080910201877E8093020140910201C901C4
:102F4000807C9070F3E095958795FA95E1F7482B92
:102F5000409302018EB1847C8EB99EB1862F8C7015
:102F6000880F880F6370860F207230703595279513
:102F700035952795820F892B8EB95C96ED91FC9142
:102F80005D97908194968C91949780958923808306
:102F90005C96ED91FC915D97808194969C919497BD
:102FA000892B80835C96ED91FC915D97908194963E
:102FB0008C9194978095892380835496ED91FC9110
:102FC0005597908190968C919097809589238083D6
:102FD000A59844B3252F332727FD3095C90180716B
:102FE0009070880F991F482B44BB80910201877E07
:102FF0008093020140910201C901807C907063E0DE
:10300000959587956A95E1F7482B409302018EB11B
:10301000847C8EB99EB1852F8C70880F880F537079
:10302000850F207230703595279535952795820F3D
:10303000892B8EB95296ED91FC91539790815F96B2
:103040008C915F978095892380835296ED91FC91B6
:10305000539780815F969C915F97892B80835496CC
:10306000ED91FC915597808190969C91892B80835E
:103070000895AF92BF92CF92DF92EF92FF920F939B
:103080001F93CF93DF93EC015801690162B948B9EE
:10309000C901B80120E130E040E050E00E940C2E70
:1030A00079018A0120E030E040E050E0D4C0EA89B4
:1030B000FB8990818F8D809589238083EA89FB89A4
:1030C00080819F8D892B8083EA89FB8990818F8DF8
:1030D000809589238083EA89FB8980819F8D892B54
:1030E0008083EA89FB8990818F8D809589238083F5
:1030F000EA89FB8980819F8D892B8083EA89FB89FE
:1031000090818F8D809589238083EA89FB898081D6
:103110009F8D892B8083EA89FB8990818F8D809593
:1031200089238083EA89FB8980819F8D892B808315
:10313000EA89FB8990818F8D809589238083EA8934
:10314000FB8980819F8D892B8083EA89FB8990810F
:103150008F8D809589238083EA89FB8980819F8D6B
:10316000892B8083EA89FB8990818F8D80958923C3
:103170008083EA89FB8980819F8D892B8083EA89FE
:10318000FB8990818F8D809589238083EA89FB89D3
:1031900080819F8D892B8083EA89FB8990818F8D27
:1031A000809589238083EA89FB8980819F8D892B83
:1031B0008083EA89FB8990818F8D80958923808324
:1031C000EA89FB8980819F8D892B8083EA89FB892D
:1031D00090818F8D809589238083EA89FB89808106
:1031E0009F8D892B8083EA89FB8990818F8D8095C3
:1031F00089238083EA89FB8980819F8D892B808345
:10320000EA89FB8990818F8D809589238083EA8963
:10321000FB8980819F8D892B8083EA89FB8990813E
:103220008F8D809589238083EA89FB8980819F8D9A
:10323000892B8083EA89FB8990818F8D80958923F2
:103240008083EA89FB8980819F8D892B80832F5F12
:103250003F4F4F4F5F4F2E153F05400751070CF46E
:1032600026CFD601C5018F709070A070B070009706
:10327000A105B10529F1C601B50120E130E040E02A
:1032800050E00E940C2E9B01AC01EE24FF2487012C
:1032900012C0EA89FB8990818F8D80958923808374
:1032A000EA89FB8980819F8D892B80830894E11CAA
:1032B000F11C011D111D2E153F05400751074CF74C
:1032C000DF91CF911F910F91FF90EF90DF90CF9002
:1032D000BF90AF900895AF92BF92CF92DF92EF92DE
:1032E000FF920F931F93CF93DF93EC0159016A0173
:1032F00062B9CA01B90120E130E040E050E00E942B
:103300000C2E79018A0120E030E040E050E0A4C1B9
:10331000EA89FB8990818F8D809589238083EA8952
:10332000FB8980819F8D892B8083EA89FB8990812D
:103330008F8D809589238083EA89FB8980819F8D89
:10334000892B8083EA89FB8990818F8D80958923E1
:103350008083EA89FB8980819F8D892B8083EA891C
:10336000FB8990818F8D809589238083EA89FB89F1
:1033700080819F8D892B8083EA89FB8990818F8D45
:10338000809589238083EA89FB8980819F8D892BA1
:103390008083EA89FB8990818F8D80958923808342
:1033A000EA89FB8980819F8D892B8083EA89FB894B
:1033B00090818F8D809589238083EA89FB89808124
:1033C0009F8D892B8083EA89FB8990818F8D8095E1
:1033D00089238083EA89FB8980819F8D892B808363
:1033E000EA89FB8990818F8D809589238083EA8982
:1033F000FB8980819F8D892B8083EA89FB8990815D
:103400008F8D809589238083EA89FB8980819F8DB8
:10341000892B8083EA89FB8990818F8D8095892310
:103420008083EA89FB8980819F8D892B8083EA894B
:10343000FB8990818F8D809589238083EA89FB8920
:1034400080819F8D892B8083EA89FB8990818F8D74
:10345000809589238083EA89FB8980819F8D892BD0
:103460008083EA89FB8990818F8D80958923808371
:10347000EA89FB8980819F8D892B8083EA89FB897A
:1034800090818F8D809589238083EA89FB89808153
:103490009F8D892B8083EA89FB8990818F8D809510
:1034A00089238083EA89FB8980819F8D892B808392
:1034B000EA89FB8990818F8D809589238083EA89B1
:1034C000FB8980819F8D892B8083EA89FB8990818C
:1034D0008F8D809589238083EA89FB8980819F8DE8
:1034E000892B8083EA89FB8990818F8D8095892340
:1034F0008083EA89FB8980819F8D892B8083EA897B
:10350000FB8990818F8D809589238083EA89FB894F
:1035100080819F8D892B8083EA89FB8990818F8DA3
:10352000809589238083EA89FB8980819F8D892BFF
:103530008083EA89FB8990818F8D809589238083A0
:10354000EA89FB8980819F8D892B8083EA89FB89A9
:1035500090818F8D809589238083EA89FB89808182
:103560009F8D892B8083EA89FB8990818F8D80953F
:1035700089238083EA89FB8980819F8D892B8083C1
:10358000EA89FB8990818F8D809589238083EA89E0
:10359000FB8980819F8D892B8083EA89FB899081BB
:1035A0008F8D809589238083EA89FB8980819F8D17
:1035B000892B8083EA89FB8990818F8D809589236F
:1035C0008083EA89FB8980819F8D892B8083EA89AA
:1035D000FB8990818F8D809589238083EA89FB897F
:1035E00080819F8D892B8083EA89FB8990818F8DD3
:1035F000809589238083EA89FB8980819F8D892B2F
:103600008083EA89FB8990818F8D809589238083CF
:10361000EA89FB8980819F8D892B8083EA89FB89D8
:1036200090818F8D809589238083EA89FB898081B1
:103630009F8D892B8083EA89FB8990818F8D80956E
:1036400089238083EA89FB8980819F8D892B8083F0
:103650002F5F3F4F4F4F5F4F2E153F0540075107DC
:103660000CF456CED601C5018F709070A070B0706A
:103670000097A105B10591F1C601B50120E130E047
:1036800040E050E00E940C2E9B01AC01EE24FF2490
:1036900087011FC0EA89FB8990818F8D80958923DE
:1036A0008083EA89FB8980819F8D892B8083EA89C9
:1036B000FB8990818F8D809589238083EA89FB899E
:1036C00080819F8D892B80830894E11CF11C011D52
:1036D000111D2E153F0540075107E4F6DF91CF91EC
:1036E0001F910F91FF90EF90DF90CF90BF90AF9020
:1036F0000895DC01462F1E968C911E97813081F033
:103700005096ED91FC91519790815E968C915E97C9
:10371000809589238083CD0160E01E962C9103C0A3
:10372000CD0160E021E00E94DD1508951F93CF9345
:10373000DF93EC01262F142F8E85813041F0E8892C
:10374000F98980819E8D892B8083CE0108C0CE01AE
:1037500061E0422F21E00E94DD15CE0161E0412FA2
:103760002E850E94DD15DF91CF911F910895EF9274
:10377000FF920F931F938C017A010E94791B6F2D8A
:10378000772767FD7A95C8014E2D0E94961B1F91E1
:103790000F91FF90EF900895AF92BF92CF92DF927A
:1037A000EF92FF920F931F93CF93DF93EC017B0176
:1037B000B42EA52E69018C81813069F429853A8562
:1037C000B9016E197F092C193D09CA017C01B22E7D
:1037D000A32E68018B018D85833021F5CE0160E237
:1037E000A7010E94B71BCE0161E24B2D5A2D0E940A
:1037F000B71BCE0160E5A7010E94B71BCE0162E5B1
:103800004B2D5A2D0E94B71BCE0161E5A6010E94E7
:10381000B71BCE0163E5A8010E94B71BCE0162E28F
:103820000E94791BDF91CF911F910F91FF90EF9034
:10383000DF90CF90BF90AF9008950F931F93FC013E
:103840008481A581B68101851285882339F4CF0151
:1038500060E070E040E050E09D0107C0CF0160E013
:1038600070E040E050E098018D010E94CC1B1F9158
:103870000F910895EF92FF920F931F93CF93DF93D1
:10388000EC01EC89FD89908188A180958923808352
:10389000CE010E941D1C8E85813031F0E889F989A6
:1038A00080819E8D892B80838E858031E1F46985AE
:1038B0007A858B859C856F5F7F4F8F4F9F4F2D81C2
:1038C0003E814F8158852F5F3F4F4F4F5F4F0E9482
:1038D000A42D8B019C01CE0160E070E040E050E03F
:1038E0000E9439184FC0883021F0EE24FF24870150
:1038F00032C069857A858B859C856F5F7F4F8F4F3E
:103900009F4F2D813E814F8158852F5F3F4F4F4FF5
:103910005F4F0E94A42D9B01AC01CE0160E070E0DE
:103920000E946B192FC02E85213021F0CE0160E05E
:1039300040E00AC0CE0161E040E021E00E94DD15D8
:10394000CE0161E040E02E850E94DD150894E11C67
:10395000F11C011D111D69857A858B859C856F5F22
:103960007F4F8F4F9F4F2D813E814F8158852F5F15
:103970003F4F4F4F5F4F0E94A42DE616F7060807F2
:1039800019078CF2EC89FD89808198A1892B8083AD
:10399000DF91CF911F910F91FF90EF900895FC015F
:1039A000708361830895FC014F3F8FEF58078FEFBD
:1039B00068078FEF780719F481E080AB0895BB2783
:1039C000A72F962F852F8283438310AA0895462F11
:1039D000672F0E94961B0895EF92FF920F931F93FB
:1039E000CF93DF93EC018A01790137FF06C0F09491
:1039F000E194F108F3946E197F09EC89FD899081B7
:103A000088A18095892380839701260F371FCE01D7
:103A1000A8010E94CC1B8E85803199F4E889F98930
:103A200080819E8D892B808368814981870122272F
:103A300017FD2095322FCE0170E050E00E9439181A
:103A400023C08830A9F498818981981789F4E8897E
:103A5000F98980819E8D892B808368819701442715
:103A600037FD4095542FCE0170E00E946B190CC0B9
:103A700000E010E0CE01688149810E94961B0F5F33
:103A80001F4FE016F106B4F7EC89FD89808198A1FB
:103A9000892B8083CE010E941D1CDF91CF911F9145
:103AA0000F91FF90EF900895EF92FF920F931F9365
:103AB000CF93DF93EC01DB01790137FF06C0F0946F
:103AC000E194F108F3944E195F09EC89FD89908126
:103AD00088A18095892380838701040F151FCE015B
:103AE000BD019D010E94CC1B8E85803199F4E8892F
:103AF000F98980819E8D892B808368814981870126
:103B0000222717FD2095322FCE0170E050E00E9451
:103B1000391823C08830A9F498818981981789F4CD
:103B2000E889F98980819E8D892B8083688197013E
:103B3000442737FD4095542FCE0170E00E946B1949
:103B40000CC000E010E0CE01688149810E94961B04
:103B50000F5F1F4FE016F106B4F7EC89FD898081F5
:103B600098A1892B8083CE010E941D1CDF91CF91EB
:103B70001F910F91FF90EF9008958F929F92AF92B7
:103B8000BF92CF92DF92EF92FF920F931F93CF934A
:103B9000DF934C01EB017A015901680126173707C1
:103BA00014F4E9015B01CE14DF041CF4C6016701C3
:103BB0007C0185010C1B1D0BC401BE01A7019801EE
:103BC0000E94EC1CC401BE01A60198010E94EC1CDD
:103BD00086010E191F09C401BE01A70198010E94A8
:103BE000541DC401B501A70198010E94541DDF9125
:103BF000CF911F910F91FF90EF90DF90CF90BF90EA
:103C0000AF909F908F9008952F923F924F925F9226
:103C10006F927F928F929F92AF92BF92CF92DF92DC
:103C2000EF92FF920F931F93DF93CF93CDB7DEB741
:103C30002C970FB6F894DEBF0FBECDBF9C878B8745
:103C40005C834B831901DC015496ED91FC915597EF
:103C5000908190968C919097809589238083D096BF
:103C60008C91D097882309F020C114968C911497D9
:103C70009C960C919C979D969C91E62EFF24882300
:103C800009F078C0202F30E021503040240F351F3C
:103C9000092F10E001501040020D131D8B859C85EB
:103CA0006B817C81A1010E94CC1BEB85FC8584A5E6
:103CB00086958695869525A5829FC001112426A507
:103CC000E21AF1088E9D50018F9DB00C9E9DB00CA4
:103CD000112444E050E0A40EB51E882499243BC072
:103CE000AB85BC859A96ED91FC919B97EA0DFB1DE7
:103CF000E49107E010E06E2E7724C301002E02C08D
:103D0000959587950A94E2F780FF0AC0EB85FC85BC
:103D1000F080EE24618170E06E297F29CF010DC013
:103D2000AB85BC851296DC901297CC2413966C91CF
:103D3000139770E06C297D29CD010E94E71C01508A
:103D40001040BFEF0F3F1B07C1F60894A11CB11C28
:103D50000894811C911CEB85FC8584A5869586952D
:103D6000869525A5829FC00111248816990608F41E
:103D7000B7CF2DC1069506950695099F9001112490
:103D8000AB85BC859E968C91E81AF1082E9D50015A
:103D90002F9DB00C3E9DB00C1124E4E0F0E0AE0E7F
:103DA000BF1E4424552471C0C20170E00E94C32D7F
:103DB0008B01020D131D30E0215030404B815C819E
:103DC000240F351F8B859C85BA01A8010E94CC1B4E
:103DD000AB85BC859C968C91869586958695E82EBC
:103DE000FF240894E108F1086701CA0CDB1C3BC002
:103DF000AB85BC859A96ED91FC919B97EC0DFD1DD2
:103E0000E49100E010E04E2F50E05E834D838D8101
:103E10009E81002E02C0959587950A94E2F780FF57
:103E20000CC0AB85BC859C90882411966C91119731
:103E300070E068297929CD0109C0EB85FC85728085
:103E40006624638170E066297729CF010E94E71C10
:103E50000F5F1F4F08301105D1F60894E108F108F3
:103E60000894C108D108FFEFEF16FFEFFF0609F035
:103E7000BFCFAB85BC859C968C91869586958695A3
:103E800090E0A80EB91E480E591EEB85FC8524A5AE
:103E9000622F66956695669585A5689FC001112479
:103EA0004816590608F480CF92C0AB85BC859C9615
:103EB0002C919C972695269526959D968C919D975D
:103EC000289F90011124862F90E09E964C91841B90
:103ED0009109289F5001299FB00C389FB00C1124E4
:103EE000E4E0F0E0AE0EBF1E3101222433245EC0B8
:103EF000C6018A0D9B1DAB85BC859A96ED91FC9100
:103F00009B97E80FF91FE491B201B7E0EB2EF12C7B
:103F10004E2F50E058874F83CB0101969A838983B7
:103F20008B859C85A30129813A8109851A850E9488
:103F3000CC1B8F8198850E2C02C0959587950A948D
:103F4000E2F780FF0DC0AB85BC859C90882411965C
:103F50006C91119770E068297929CD010E94E71CC6
:103F60000894E108F108BFEFEB16BFEFFB0619F06C
:103F700069817A81D1CF0894C11CD11CE8E0F0E0BE
:103F80004E0E5F1EAB85BC859C968C918695869562
:103F9000869590E0C816D9060CF4AACFA80EB91ED3
:103FA0000894211C311C0894611C711CEB85FC8554
:103FB00085A590E02816390650F44B805C80CC240F
:103FC000DD24A3014F5F5F4F5A874987DBCFAB8565
:103FD000BC855496ED91FC915597808190969C916B
:103FE000892B80838B859C850E941D1C2C960FB687
:103FF000F894DEBF0FBECDBFCF91DF911F910F911F
:10400000FF90EF90DF90CF90BF90AF909F908F90F8
:104010007F906F905F904F903F902F900895DC01BC
:10402000FB019B967C936E939A9784919C968C93BC
:104030009C97319684919D968C939D97319684910F
:104040009E968C939E973196E4919F96EC9308955B
:104050002F923F924F925F926F927F928F929F9298
:10406000AF92BF92CF92DF92EF92FF920F931F9386
:10407000DF93CF93CDB7DEB7E1970FB6F894DEBFED
:104080000FBECDBF99AB88ABC62E5A014901198F1F
:10409000088FB701882777FD8095982F0E94272CDD
:1040A00029E23CE54FE85CE30E94F52C6E8F7F8FA0
:1040B00088A399A3A8A9B9A95496ED91FC91559705
:1040C000908190968C9190978095892380839C967F
:1040D0008C919C978695869586959D962C919D971B
:1040E000829FC0011124DD249E962C91C21AD10812
:1040F0008C9DF0018D9DF00D9C9DF00D112434964A
:10410000FE83ED831F829501442737FD4095542F90
:1041100028A739A74AA75BA7C401AA2797FDA0959E
:10412000BA2F8CA79DA7AEA7BFA712C18B819C8178
:10413000AD81BE818A0F9B1FA8A9B9A99A96ED915E
:10414000FC919B97E80FF91FC4902E8D3F8D48A1DD
:1041500059A1B901CA010E94F12B6C8B7D8B8E8B0A
:104160009F8B6CA17DA18EA19FA10E94272C7B011A
:104170008C012E8D3F8D48A159A1B901CA010E9421
:10418000582D688B798B8A8B9B8BC801B701288946
:1041900039894A895B890E94F52C6C877D878E87D7
:1041A0009F87C801B7012C893D894E895F890E948C
:1041B000F52C688779878A879B8722243324EC2D06
:1041C000F0E0FBA3EAA3A8A9B9A99C968C9190E082
:1041D000E88DF98DE89FB001E99F700DF89F700D93
:1041E000112429813A81620F731F620D731D882784
:1041F00077FD8095982F0E94272C4B015C0168A5C4
:1042000079A58AA59BA50E94272C7B018C01C5015D
:10421000B4012C893D894E895F890E94F52C2C853B
:104220003D854E855F850E948C2B9B01AC01C801AA
:10423000B7010E948D2B0E94F42B2B013C016B01D6
:104240006CA57DA58EA59FA50E94272C7B018C01C6
:10425000C501B401288939894A895B890E94F52CF6
:104260009B01AC01688579858A859B850E948D2B91
:104270009B01AC01C801B7010E948D2B0E94F42B59
:104280009B01AC018B010894C11CD11C0F5F1F4F17
:1042900088A999A9B201A90196010E94CC1B87E0C7
:1042A00090E0821993094AA15BA102C055954795F8
:1042B0008A95E2F740FF0CC0A8A9B9A9BC91BB8FB1
:1042C0001A8EE8A9F9A9618170E02A8D3B8D11C091
:1042D000A8A9B9A9D0968C91D097882379F4129681
:1042E000BC91BD8F1C8EE8A9F9A9638170E02C8D6B
:1042F0003D8D622B732BCF010E94E71C0894211C7B
:10430000311C38E02316310409F05DCF4B815C810C
:104310004F5F5F4F5C834B8389819A8108969A83B4
:104320008983A8A9B9A99C968C918695869586952E
:1043300090E0EB81FC81E817F9070CF4F7CE2D81B2
:104340003E81280F391F3E832D833F813F5F3F838E
:10435000A8A9B9A99D968C91BF81B81780F41C8239
:104360001B821A8219828B2F90E09C01442737FD13
:104370004095542F2CA33DA34EA35FA3D2CFA8A951
:10438000B9A95496ED91FC915597808190969C9196
:10439000892B808388A999A90E941D1CE1960FB6DC
:1043A000F894DEBF0FBECDBFCF91DF911F910F916B
:1043B000FF90EF90DF90CF90BF90AF909F908F9045
:1043C0007F906F905F904F903F902F9008952F9225
:1043D0003F924F925F926F927F928F929F92AF9295
:1043E000BF92CF92DF92EF92FF920F931F93CF93E2
:1043F000DF935C01F62EE72EEA0119012801E62F72
:10440000F72FDF010D900020E9F73D0108946108C6
:1044100071086E1A7F0AFC018481882321F5F7E276
:104420004F305F0799F4D5011596CD91DC91169721
:1044300021969C968C9190E0FC01E69DC001E79D41
:10444000900DF69D900D1124C81BD90BF7E2CE30CC
:10445000DF0709F048C0D50115966D917D918D91CA
:104460009C91189722C0F7E24F305F0799F4D5016D
:104470001996CD91DC911A9721969C968C9190E09B
:10448000FC01E69DC001E79D900DF69D900D112465
:10449000C81BD90BF7E2CE30DF0729F5D5011996F5
:1044A0006D917D918D919C911C976F5F7F4F8F4F88
:1044B0009F4F9C962C9130E0F901E69D9001E79D7D
:1044C000300DF69D300D1124442737FD4095542FB3
:1044D000621B730B840B950B22E030E040E050E050
:1044E0000E940C2EE9018F2D9E2D9C014901CC24A8
:1044F000DD2426C041145104A1F4D5019C968C9171
:1045000090E0C89EA001C99E500DD89E500D112468
:104510004C0F5D1FC501F401608191010E94041ED2
:1045200009C0C501D4016C91AE01910186017201EF
:104530000E9428200894C11CD11C0894811C911C45
:10454000C614D704BCF2DF91CF911F910F91FF9059
:10455000EF90DF90CF90BF90AF909F908F907F9023
:104560006F905F904F903F902F9008951F93CF933F
:10457000DF93EC01162F8DA161E00E94A52A8EA188
:1045800061E00E94A52A8FA161E00E94A52A88A56A
:1045900061E00E94A52A8E85813129F0813039F4AD
:1045A0008F85853021F489A561E00E94A52A8E853A
:1045B000813079F0813131F09FEF91B9803149F448
:1045C00097B907C088E18093010180E283BB8BE348
:1045D0008DB91C83EE89FF89808199A1892B808305
:1045E00065E070E080E090E00E945D29EE89FF893F
:1045F000908189A18095892380836FE070E080E0BD
:1046000090E00E945D29EE89FF89808199A1892B24
:1046100080836FE070E080E090E00E945D29EC898B
:10462000FD89908188A18095892380838D85833041
:1046300009F044C1CE0165EE40EF58E70E94B71B78
:10464000CE0161E040E051E00E94B71BCE0162E084
:1046500040E057E00E94B71BCE0163E040E350E129
:104660000E94B71BCE0164E040E050E00E94B71BFF
:10467000CE0168E047E052E00E94B71BCE0169E03E
:1046800040E050E00E94B71BCE016AE040E050E0FD
:104690000E94B71BCE016CE040E050E00E94B71BC7
:1046A000CE016DE040E050E00E94B71BCE016FE00C
:1046B00040E050E00E94B71BCE0160E140E050E0D6
:1046C0000E94B71BCE0161E147E050E00E94B71B9A
:1046D000CE0162E140E050E00E94B71BCE0163E1F1
:1046E00040E050E00E94B71BCE0167E041E050E09F
:1046F0000E94B71B68EC70E080E090E00E945D29AA
:10470000CE0160E140E950E10E94B71BCE0161E1BA
:1047100047E252E00E94B71B62E370E080E090E065
:104720000E945D29CE0162E14FE150E00E94B71B7B
:1047300062E370E080E090E00E945D29CE0163E1D9
:1047400040E055E10E94B71BCE0169E247E250E02C
:104750000E94B71BCE016BE24DE050E00E94B71BF8
:1047600062E370E080E090E00E945D29CE0160E2AB
:1047700040E050E00E94B71BCE0161E240E050E013
:104780000E94B71BCE0160E340E050E00E94B71BDF
:10479000CE0161E347E057E00E94B71BCE0162E320
:1047A00047E053E00E94B71BCE0165E340E052E0D2
:1047B0000E94B71BCE0166E348E050E00E94B71BA1
:1047C000CE0167E344E050E00E94B71BCE0168E3EE
:1047D00040E050E00E94B71BCE0169E347E057E09C
:1047E0000E94B71BCE016CE342E050E00E94B71B71
:1047F000CE016DE344E05DE10E94B71BCE0160E5B0
:1048000040E050E00E94B71BCE0161E54FEE50E062
:104810000E94B71BCE0162E540E050E00E94B71B4A
:10482000CE0163E54FE351E00E94B71BCE0160E685
:1048300040E057EA0E94B71BCE0161E641E050E03C
:104840000E94B71BCE016AE640E050E00E94B71B11
:10485000CE0160E840E050E00E94B71BCE0161E865
:1048600040E050E00E94B71BCE0162E840E050E01B
:104870000E94B71BCE0163E840E050E00E94B71BE6
:10488000CE0164E840E050E00E94B71BCE0165E82D
:1048900040E050E00E94B71BCE0160E940E150E0EB
:1048A0000E94B71BCE0162E940E056E00E94B71BB0
:1048B000CE0167E043E351E00E94B71BEC89FD891C
:1048C000808198A1892B80838FEF888389831A82C6
:1048D0001B821BA61AA618AADF91CF911F910895DB
:1048E0005F926F927F928F929F92AF92BF92CF9280
:1048F000DF92EF92FF920F931F93DF93CF93CDB789
:10490000DEB7C659D0400FB6F894DEBF0FBECDBF9C
:104910005C01762E942E652E822E532EDE015F963C
:10492000E6E4F4E08CE301900D928150E1F7DE01C2
:10493000A55ABF4FEAE0F4E08CE301900D9281505C
:10494000E1F7DE011196ECEEF3E08EE101900D92BD
:104950008150E1F7672D70E0AB01440F551F9E01B8
:104960002F5F3F4FF901E40FF51F868D978DA0E073
:10497000B0E0F50185839683A783B087FE01E55AF1
:10498000FF4FE40FF51F80819181A0E0B0E0F501B9
:1049900081879287A387B487260F371FD9012C916F
:1049A0002687758695A286A207A3E0A6C1A6243015
:1049B00019F481E086872787F5019685953019F4EB
:1049C00081E086879787D5011E964C911E974130CE
:1049D00009F484C0292D362DF901E058F64EE491F2
:1049E000F0E0EE0FFF1FE45BF64E85919491519637
:1049F0009C938E9350972A53364EF90184915E967C
:104A00008C935E97282D352DF901E058F64EE491F0
:104A1000F0E0EE0FFF1FE45BF64E85919491539604
:104A20009C938E9352972A53364EF90184915F9648
:104A30008C935F979801F801E058F64EE491F0E00E
:104A4000EE0FFF1FE45BF64E8591949155969C9373
:104A50008E9354972A53364EF901849190968C93F5
:104A600090979701F701E058F64EE491F0E0EE0FD1
:104A7000FF1FE45BF64E8591949157969C938E931D
:104A800056972A53364EF901849191968C93413171
:104A900009F0A1C0C601F601E058F64EE4912E2FB0
:104AA00030E0220F331F245B364EF901A591B491FB
:104AB000F501B58FA48F8A53964EFC019491F501B0
:104AC00094A38C91909598239C9388E061E00E9438
:104AD000A52A88E060E00E94582B7DC0292D362D44
:104AE000F901E058F64EE491F0E0EE0FFF1FE45BB1
:104AF000F64E85919491D50159969C938E93589733
:104B00002A53364EF901849192968C939297282DD0
:104B1000352DF901E058F64EE491F0E0EE0FFF1F5D
:104B2000E45BF64E859194915B969C938E935A9795
:104B30002A53364EF901849193968C93939798015A
:104B4000F801E058F64EE491F0E0EE0FFF1FE45B51
:104B5000F64E8591949155969C938E9354972A5333
:104B6000364EF901849190968C9390979701F701B6
:104B7000E058F64EE491F0E0EE0FFF1FE45BF64ED6
:104B80008591949157969C938E9356972A53364EBF
:104B9000F901849191968C9391971F968C911F9710
:104BA0008430C9F0A601C6018058964EFC0184915C
:104BB000282F30E0220F331F245B364EF9018591F8
:104BC000949151969C938E9350974A53564EFA0166
:104BD00084915E968C93CA56DF4F0FB6F894DEBF71
:104BE0000FBECDBFCF91DF911F910F91FF90EF903E
:104BF000DF90CF90BF90AF909F908F907F906F90FD
:104C00005F900895DC015C968C915C97FD01E80F44
:104C1000F11DE35AFF4F20815C968C915C9790E0E8
:104C200001968F7390705C968C935C975696ED917D
:104C3000FC91579720835096ED91FC91519780817C
:104C4000806480835B969C915B975C968C915C976B
:104C5000981739F45296ED91FC91539780818F7D8E
:104C600080830895DF92EF92FF920F931F93CF936B
:104C7000DF93EC017A018B01D22EE889F98982E079
:104C80008083403081EE580780E0680780E0780735
:104C9000A1F060E079E08DE390E0A80197010E9427
:104CA000EA2D215030404040504056954795379569
:104CB000279580E12030380798F0E889F98910823B
:104CC00060E874E88EE190E0A80197010E94EA2D67
:104CD0002150304040405040569547953795279594
:104CE000EC85FD853083EE85FF852083188EEC8969
:104CF000FD89D082EA89FB89808180618083EA898D
:104D0000FB89808188608083EA89FB898081806853
:104D10008083EA89FB8980818F7D8083DF91CF91B9
:104D20001F910F91FF90EF90DF900895FC01218D6E
:104D3000828D30E0205C3F4F281B31092F7330708B
:104D4000C9010895FC01918D828D981719F42FEFF8
:104D50003FEF06C0828DE80FF11D858D282F30E0D2
:104D6000C9010895DC0159969C9159975A968C91E6
:104D70005A97981719F42FEF3FEF10C05A968C915D
:104D80005A97FD01E80FF11D958D5A968C915A970F
:104D90008F5F8F735A968C93292F30E0C901089545
:104DA000CF93DF93EC01888D882361F419C08C9137
:104DB00085FF0AC0E889F989808185FF05C0CE0199
:104DC0000E940226AA89BB898C9185FD05C0E889CD
:104DD000F989808186FD04C00FB607FEE8CFF4CFC5
:104DE000DF91CF9108950F931F93CF93DF93EC0141
:104DF000062F9B8D8C8D981791F5E889F989808114
:104E000085FF2DC0EE89FF896083E889F98980815B
:104E1000806480831DC00FB607FC08C0E889F9894B
:104E2000808185FF03C0CE010E9402268C8D181759
:104E300091F38B8DFE01E80FF11DE35AFF4F0083C4
:104E40001B8FEA89FB8980818062808381E0888F63
:104E500081E090E0DF91CF911F910F9108951B8D1C
:104E60001F5F1F73E3CF89EE97E2892B51F080E03B
:104E700090E0892B31F00E94E927882311F00E94ED
:104E8000000080E090E0892B51F080E090E0892BD9
:104E900031F00E940000882311F00E94000080E0A1
:104EA00090E0892B51F080E090E0892B31F00E9456
:104EB0000000882311F00E94000080E090E0892B20
:104EC00051F080E090E0892B31F00E9400008823AF
:104ED00011F00E94000008951F920F920FB60F92DA
:104EE0000BB60F9211242F938F939F93EF93FF9301
:104EF000E091E806F091E906808182FD16C0E0911C
:104F0000EE06F091EF0620819091F1069F5F9F736E
:104F10008091F206981771F0E091F106F0E0E85206
:104F2000F94F258F9093F10605C0E091EE06F091C0
:104F3000EF06E081FF91EF919F918F912F910F905C
:104F40000BBE0F900FBE0F901F9018951092DB06AE
:104F50001092DA0688EE93E0A0E0B0E08093DC06E1
:104F60009093DD06A093DE06B093DF0686E894E01A
:104F70009093D9068093D80685EC90E09093E5064F
:104F80008093E40684EC90E09093E7068093E60635
:104F900080EC90E09093E9068093E80681EC90E045
:104FA0009093EB068093EA0682EC90E09093ED06F6
:104FB0008093EC0686EC90E09093EF068093EE06EB
:104FC0001092F1061092F2061092F3061092F40677
:104FD000089588ED96E00E94962620E0892B09F03E
:104FE00021E0822F08951F920F920FB60F920BB6F9
:104FF0000F9211242F933F934F935F936F937F935F
:105000008F939F93AF93BF93EF93FF9388ED96E0B9
:105010000E940226FF91EF91BF91AF919F918F91D6
:105020007F916F915F914F913F912F910F900BBEA8
:105030000F900FBE0F901F901895CF92DF92EF92B6
:10504000FF920F931F93CF93DF937C016B018A0133
:10505000C0E0D0E00FC0D6016D916D01D701ED9198
:10506000FC910190F081E02DC7011995C80FD91F5F
:10507000015010400115110571F7CE01DF91CF915C
:105080001F910F91FF90EF90DF90CF900895EF92D6
:10509000FF920F931F938C01DC01ED91FC91019025
:1050A000F081E02D6DE019957C01D801ED91FC9126
:1050B0000190F081E02DC8016AE019959C012E0D48
:1050C0003F1DC9011F910F91FF90EF900895CF935D
:1050D000DF93EC016115710519F420E030E00FC099
:1050E000DB010D900020E9F71197A61BB70BE881B3
:1050F000F9810280F381E02DAD0119959C01C90170
:10510000DF91CF910895EF92FF920F931F937C014F
:105110000E9467288C01C7010E944728080F191FA9
:10512000C8011F910F91FF90EF900895CF93DF93E7
:105130000E94FB280E944E13C3E3D7E20E94531241
:105140002097E1F30E943327F9CF1F920F920FB6F9
:105150000F9211242F933F938F939F93AF93BF93FD
:105160008091790790917A07A0917B07B0917C0795
:1051700030917D070196A11DB11D232F2D5F2D3785
:1051800020F02D570196A11DB11D20937D0780931E
:10519000790790937A07A0937B07B0937C0780915F
:1051A000750790917607A0917707B09178070196DF
:1051B000A11DB11D8093750790937607A093770783
:1051C000B0937807BF91AF919F918F913F912F91AD
:1051D0000F900FBE0F901F9018958FB7F8942091E5
:1051E000790730917A0740917B0750917C078FBFF8
:1051F000B901CA010895789484B5826084BD84B5EC
:10520000816084BD85B5826085BD85B5816085BDC1
:10521000EEE6F0E0808181608083E1E8F0E01082DA
:10522000808182608083808181608083E0E8F0E01B
:10523000808181608083E1EBF0E080818460808305
:10524000E0EBF0E0808181608083E1E9F0E0808143
:1052500082608083808181608083E0E9F0E08081EA
:1052600081608083E1EAF0E08081826080838081D8
:1052700081608083E0EAF0E0808181608083E1E208
:10528000F1E0808182608083808181608083E0E2C0
:10529000F1E0808181608083EAE7F0E080818460D2
:1052A000808380818260808380818160808380812F
:1052B000806880831092C1000895EF92FF920F934F
:1052C0001F93CF93DF937B018C013FB7F8948091BC
:1052D000750790917607A0917707B091780726B56A
:1052E000A89B05C02F3F19F00196A11DB11D3FBF1E
:1052F000BA2FA92F982F8827820F911DA11DB11DAC
:1053000052E0880F991FAA1FBB1F5A95D1F7EC01D5
:1053100030C00E948B2B3FB7F89480917507909115
:105320007607A0917707B091780726B5A89B05C0AE
:105330002F3F19F00196A11DB11D3FBFBA2FA92F14
:10534000982F8827820F911DA11DB11D32E0880F73
:10535000991FAA1FBB1F3A95D1F78C1B9D0B885E26
:105360009340B8F20894E108F10801091109C85105
:10537000DC4FE114F1040105110559F6DF91CF91DD
:105380001F910F91FF90EF9008951F93CF93DF939C
:10539000182FEB0161E00E94A52A209709F4CAC0EA
:1053A000CF3FD10509F4C9C0E12FF0E0E45FF54E2D
:1053B0008491893009F466C08A30B0F48430F1F108
:1053C000853040F4823059F1833070F5813009F036
:1053D000AEC020C0873009F443C0883008F048C010
:1053E000863009F0A4C034C08D3009F478C08E3006
:1053F00038F48B3009F45AC08C3008F066C04CC0C9
:10540000803109F480C0813109F487C08F3009F000
:105410008EC06FC084B5806884BDC7BD92C084B59E
:10542000806284BDC8BD8DC08091800080688093FB
:105430008000D0938900C093880083C08091800051
:10544000806280938000D0938B00C0938A0079C0E3
:105450008091B00080688093B000C093B30071C0A9
:105460008091B00080628093B000C093B40069C0A6
:1054700080919000806880939000D0939900C093B1
:1054800098005FC080919000806280939000D093DC
:105490009B00C0939A0055C08091900088608093D3
:1054A0009000D0939D00C0939C004BC08091A000C1
:1054B00080688093A0008091A0008F7B8093A000E3
:1054C000D093A900C093A8003CC08091A000806246
:1054D0008093A000D093AB00C093AA0032C080910B
:1054E000A00088608093A000D093AD00C093AC0072
:1054F00028C080912001806880932001D0932901E9
:10550000C09328011EC080912001806280932001F9
:10551000D0932B01C0932A0114C080912001886090
:1055200080932001D0932D01C0932C010AC0C03874
:10553000D1051CF4812F60E002C0812F61E00E9440
:10554000582BDF91CF911F910895CF93DF93482F70
:1055500050E0CA018A53964EFC0134914058564E91
:10556000FA018491882369F190E0880F991FFC016A
:10557000EE5CF64EA591B491FC01E45BF64EC5914C
:10558000D491662351F42FB7F8948C91932F909572
:1055900089238C93888189230BC0623061F42FB7F3
:1055A000F8948C91932F909589238C938881832BE9
:1055B00088832FBF06C09FB7F8948C91832B8C9360
:1055C0009FBFDF91CF910895893009F449C08A3097
:1055D000A0F4843051F1853040F4823079F1833089
:1055E00000F5813009F063C026C0873079F188303A
:1055F00098F5863009F05BC025C08D3009F442C0B3
:105600008E3028F48B30B1F18C30C0F52DC0803154
:1056100009F442C0813109F445C08F3009F047C018
:1056200037C0809180008F7703C0809180008F7D8C
:1056300080938000089584B58F7702C084B58F7DF4
:1056400084BD08958091B0008F7703C08091B00031
:105650008F7D8093B0000895809190008F7707C070
:10566000809190008F7D03C080919000877F809310
:10567000900008958091A0008F7707C08091A000CE
:105680008F7D03C08091A000877F8093A000089544
:10569000809120018F7703C0809120018F7D8093BE
:1056A0002001089580912001877F80932001089533
:1056B000FF920F931F93F62E482F50E0CA01845F8C
:1056C000954EFC012491CA018A53964EFC01149117
:1056D0004058564EFA0104910023C9F0222319F0D4
:1056E000822F0E94E42AE02FF0E0EE0FFF1FE45B20
:1056F000F64EA591B4919FB7F894FF2021F48C91B8
:105700001095812302C08C91812B8C939FBF1F9198
:105710000F91FF90089508955058BB27AA270ED0E7
:1057200019C1D9D030F0DED020F031F49F3F11F410
:105730001EF4CEC00EF4E095E7FBC4C0E92F2CD1D7
:1057400080F3BA17620773078407950718F071F49E
:105750009EF544C10EF4E0950B2EBA2FA02D0B013F
:10576000B90190010C01CA01A0011124FF27591BA6
:1057700099F0593F50F4503E68F11A16F040A22FAC
:10578000232F342F4427585FF3CF4695379527951D
:10579000A795F0405395C9F77EF41F16BA0B620B1C
:1057A000730B840BBAF09150A1F0FF0FBB1F661F63
:1057B000771F881FC2F70EC0BA0F621F731F841FA6
:1057C00048F4879577956795B795F7959E3F08F0CC
:1057D000B3CF9395880F08F09927EE0F979587958B
:1057E000089588D0E395C7C004D06894B111F7C07C
:1057F0000895DAD088F09F5790F0B92F9927B751C4
:10580000A0F0D1F0660F771F881F991F1AF0BA9584
:10581000C9F712C0B13081F0E1D0B1E00895DEC027
:10582000672F782F8827B85F39F0B93FCCF386957A
:1058300077956795B395D9F73EF4909580957095D7
:1058400061957F4F8F4F9F4F0895E89409C097FB54
:105850003EF490958095709561957F4F8F4F9F4F47
:105860009923A9F0F92F96E9BB279395F69587958B
:1058700077956795B795F111F8CFFAF4BB0F11F44E
:1058800060FF1BC06F5F7F4F8F4F9F4F16C08823F5
:1058900011F096E911C0772321F09EE8872F762F2B
:1058A00005C0662371F096E8862F70E060E02AF06C
:1058B0009A95660F771F881FDAF7880F9695879558
:1058C00097F9089597F99F6780E870E060E0089580
:1058D0009FEF80EC089500240A9416161706180608
:1058E0000906089500240A941216130614060506E4
:1058F0000895EECF59D0E8F3E894EFEFBB273FE0EF
:1059000048EC5FE76B3D73078407950708F1FF27B5
:105910009F57B25A6A4D7F40894CF04032F4BE55D1
:105920006542704F8643FF4F0894EE1F915030F050
:10593000BB0F661F771F881FFF1FEBCF9EE78823D3
:1059400032F0BB0F661F771F881F9A95C1F793959A
:10595000E095B4C0092E0394000C11F4882352F092
:10596000BB0F40F4BF2B11F460FF04C06F5F7F4F8B
:105970008F4F9F4F0895EF93E0FF06C0A2EA2AEDF4
:105980003FE049EC5FEBDADEE5DF0F90039401FCCA
:105990009058E4EEF0E0A2C057FD9058440F551F18
:1059A00059F05F3F71F04795880F97FB991F61F0A1
:1059B0009F3F79F087950895121613061406551F18
:1059C000F2CF4695F1DF08C0161617061806991F84
:1059D000F1CF86957105610508940895E894BB2779
:1059E00066277727CB0197F908950BD0B3CF73DFE4
:1059F00028F078DF18F0952309F064CF69CF1124DF
:105A0000EECFCADFA0F3959FD1F3950F50E0551F5D
:105A1000629FF001729FBB27F00DB11D639FAA2703
:105A2000F00DB11DAA1F649F6627B00DA11D661F52
:105A3000829F2227B00DA11D621F739FB00DA11D73
:105A4000621F839FA00D611D221F749F3327A00D2D
:105A5000611D231F849F600D211D822F762F6A2FC9
:105A600011249F5750408AF0E1F088234AF0EE0F4E
:105A7000FF1FBB1F661F771F881F91505040A9F75B
:105A80009E3F510570F01ECFAACF5F3FECF3983ECA
:105A9000DCF3869577956795B795F795E7959F5FC2
:105AA000C1F7FE2B880F911D9695879597F908955C
:105AB0009F9320DF0F9007FCEE5F5DCF9F3F49F083
:105AC000915028F4869577956795B7959F5F8038B4
:105AD0009F4F880F9695879597F908959F938F9379
