:100000000C942B0D0C94580D0C94580D0C94580D09
:100010000C94580D0C94580D0C94580D0C94580DCC
:100020000C94580D0C94580D0C94580D0C94580DBC
:100030000C94580D0C94580D0C94580D0C94580DAC
:100040000C94580D0C94580D0C94580D0C94580D9C
:100050000C94580D0C94580D0C94580D0C942C299C
:100060000C94580D0C94F3270C947A280C94580D8A
:100070000C94580D0C94580D0C94580D0C94580D6C
:100080000C94580D0C94580D0C94580D0C94580D5C
:100090000C94580D0C94580D0C94580D0C94580D4C
:1000A0000C94580D0C94580D0C94580D0C94580D3C
:1000B0000C94580D0C94580D0C94580D0C94580D2C
:1000C0000C94580D0C94580D0C94580D0C94580D1C
:1000D0000C94580D0C94580D0C94580D0C94580D0C
:1000E0000C94580D05A84CCDB2D44EB93836A9029F
:1000F0000C50B9918688083CA6AAAA2ABE00000026
:10010000803F080C205F000000000000000000009D
:1001100000000000202020202020002000000028D7
:100120005050000000000000000000002828FC28BB
:1001300050FC50500000002078A8A0603028A8F0A3
:100140002000000048A8B0502834544800000000A7
:1001500020505078A8A8906C00000040408000001B
:10016000000000000000000408101010101010081B
:10017000040000402010101010101020400000005B
:100180000020A87070A8200000000000202020F8A7
:1001900020202000000000000000000000000040BF
:1001A00040800000000000F8000000000000000097
:1001B00000000000000000400000000810101020A7
:1001C00020404040800000007088888888888870BF
:1001D000000000002060202020202070000000008F
:1001E00070888810204080F8000000007088083077
:1001F00008088870000000001030505090781018E7
:1002000000000000F88080F00808887000000000FE
:10021000709080F08888887000000000F8901020AE
:100220002020202000000000708888708888887056
:10023000000000007088888878084870000000007E
:10024000000020000000002000000000000000204E
:1002500000000020200000040810204020100804A6
:10026000000000000000F80000F80000000000405E
:10027000201008040810204000000000708888103A
:100280002020002000000000708898A8A8B880787E
:100290000000000020203050507848CC00000000C2
:1002A000F0484870484848F0000000007888808096
:1002B0008080887000000000F0484848484848F0B6
:1002C00000000000F8485070504048F8000000005E
:1002D000F8485070504040E00000000038488080EE
:1002E0009C88483000000000CC484878484848CCFA
:1002F00000000000F8202020202020F8000000004E
:100300007C10101010101090E0000000EC485060BD
:10031000505048EC00000000E0404040404044FCA9
:1003200000000000D8D8D8D8A8A8A8A800000000CD
:10033000DC486868585848E80000000070888888E1
:100340008888887000000000F0484870404040E015
:10035000000000007088888888E898701800000005
:10036000F0484870504848EC0000000078888060F1
:10037000100888F000000000F8A82020202020703D
:1003800000000000CC4848484848483000000000C1
:10039000CC4848505030202000000000A8A8A87089
:1003A0005050505000000000D8505020205050D8DD
:1003B00000000000D85050202020207000000000D5
:1003C000F8901020204048F800000038202020201D
:1003D000202020203800004040402020101010082D
:1003E000000000701010101010101010700000208D
:1003F00050000000000000000000000000000000AD
:100400000000000000FC00200000000000000000D0
:1004100000000000000000304838483C00000000A8
:10042000C04040704848487000000000000000389C
:100430004840403800000000180808384848483C48
:100440000000000000000030487840380000000044
:100450001C20207820202078000000000000003CB4
:100460004830407844380000C0404070484848EC6C
:10047000000000002000006020202070000000002C
:10048000100000301010101010E00000C040405C60
:10049000507048EC00000000E0202020202020F8D0
:1004A00000000000000000F0A8A8A8A800000000BC
:1004B000000000F0484848EC000000000000003058
:1004C0004848483000000000000000F048484870EC
:1004D00040E000000000003848484838081C000090
:1004E000000000D8604040E00000000000000078FC
:1004F00040300878000000000020207020202018E4
:1005000000000000000000D84848483C00000000FF
:10051000000000EC4850302000000000000000A85F
:10052000A870505000000000000000D8502050D8A3
:1005300000000000000000EC4850302020C0000007
:100540000000007810202078000000181010102003
:1005500010101010180010101010101010101010A3
:10056000101000602020201020202020600040A4D7
:10057000180000000000000000001010205F0000C4
:10058000000000000000000000000000000000006B
:10059000000000000000000000000000000000005B
:1005A000000007000F800F800F800F800F80070072
:1005B000070000000000070007000700000000001F
:1005C0000E380E380E380E380630000000000000DD
:1005D000000000000000000000000000000000001B
:1005E0000C300C300C307FFE7FFE0C300C300C30A9
:1005F0000C307FFE7FFE0C300C300C300000000011
:10060000024002400FF81FF81A401A401FF00FF87E
:10061000025802581FF81FF002400240000000007C
:10062000000000000E100E300E7000E001C00380CC
:1006300007000E700C700870000000000000000041
:1006400000000F001980198019800F000F080F9803
:1006500019F818F018E019F00F98000000000000D9
:1006600000000700070007000E0000000000000067
:10067000000000000000000000000000000000007A
:10068000000000F001C0038007000E000E000E0005
:100690000E000700038001C000F000000000000011
:1006A00000000F00038001C000E0007000700070C7
:1006B000007000E001C003800F0000000000000097
:1006C000000001801188099007E007E03FFC3FFC33
:1006D00007E007E009901188018000000000000099
:1006E0000000000000000180018001800FF00FF089
:1006F0000180018001800000000000000000000077
:1007000000000000000000000000000000000000E9
:10071000000000000700070007000E0000000000B6
:100720000000000000000000000000001FF81FF89B
:1007300000000000000000000000000000000000B9
:1007400000000000000000000000000000000000A9
:100750000000000007000700070000000000000084
:10076000000000020006000E001C0038007000E0CF
:1007700001C0038007000E001C0000000000000004
:1007800000000FF01C381C781CF81CF81DB81DB8B0
:100790001F381F381E381C380FF000000000000002
:1007A00000000180018003801F801F800380038080
:1007B00003800380038003801FF00000000000001E
:1007C00000000FE01C701C380038007000E001C011
:1007D000038007000E381C381FF8000000000000DE
:1007E00000000FE01C701C380038007003C003C00C
:1007F000007000381C381C700FE000000000000082
:10080000000000E001E003E006E00CE018E01FF863
:100810001FF800E000E000E003F800000000000026
:1008200000001FF81C001C001C001C001FE01FF033
:10083000007800381C381C700FE000000000000039
:10084000000003E007000E001C001C001FF01FF852
:100850001C381C381C381C380FF000000000000049
:1008600000001FFC1C1C1C1C1C1C001C0038007001
:1008700000E001C00380038003800000000000004E
:1008800000000FF01C381C381C381F3807E007E048
:100890001CF81C381C381C380FF000000000000049
:1008A00000000FF01C381C381C381C381FF80FF8DB
:1008B00000380038007000E007C0000000000000B1
:1008C000000000000000038003800380000000009F
:1008D000038003800380000000000000000000008F
:1008E000000000000000038003800380000000007F
:1008F0000380038003800700000000000000000068
:10090000007000E001C0038007000E001C001C0006
:100910000E000700038001C000E00070000000002E
:1009200000000000000000003FFC3FFC0000000051
:100930003FFC3FFC00000000000000000000000041
:100940001C000E000700038001C000E00070007072
:1009500000E001C0038007000E001C000000000042
:1009600003C00FF01E7818380038007000E001C096
:1009700001C00000000001C001C001C00000000073
:100980000FF81C1C1C1C1C1C1C1C1CFC1CFC1CFC38
:100990001CFC1C001C001C001FF007F800000000DD
:1009A000000003C007E00E701C381C381C381C38CF
:1009B0001FF81C381C381C381C38000000000000D0
:1009C00000001FF00E380E380E380E380FF00FF002
:1009D0000E380E380E380E381FF0000000000000F0
:1009E000000007F00E381C381C001C001C001C0006
:1009F0001C001C001C380E3807F00000000000002E
:100A000000001FE00E700E380E380E380E380E380B
:100A10000E380E380E380E701FE000000000000087
:100A200000001FF80E180E080E000E300FF00FF029
:100A30000E300E000E080E181FF800000000000017
:100A400000001FF80E180E080E000E300FF00FF009
:100A50000E300E000E000E001F000000000000000F
:100A6000000007F00E381C381C381C001C001C004D
:100A70001CF81C381C380E3807F800000000000075
:100A800000001C701C701C701C701C701FF01FF08C
:100A90001C701C701C701C701C700000000000009A
:100AA00000000FE003800380038003800380038045
:100AB00003800380038003800FE00000000000003B
:100AC000000001FC00700070007000700070007089
:100AD00038703870387038700FE000000000000087
:100AE00000001E380E380E700EE00FC00F800F8011
:100AF0000FC00EE00E700E381E380000000000001F
:100B000000001F000E000E000E000E000E000E0072
:100B10000E000E080E180E381FF80000000000002E
:100B200000001C1C1E3C1F7C1FFC1FFC1DDC1C9CB1
:100B30001C1C1C1C1C1C1C1C1C1C0000000000009D
:100B400000001C1C1C1C1E1C1F1C1F9C1DDC1CFCF4
:100B50001C7C1C3C1C1C1C1C1C1C000000000000FD
:100B6000000003E007F00E381C1C1C1C1C1C1C1C85
:100B70001C1C1C1C0E3807F003E0000000000000E5
:100B800000001FF00E380E380E380E380FF00FF040
:100B90000E000E000E000E001F00000000000000FE
:100BA000000003E00F780E381C1C1C1C1C1C1C1CB5
:100BB0001C7C1CFC0FF80FF8003800FC0000000043
:100BC00000001FF00E380E380E380E380FF00FF000
:100BD0000E700E380E380E381E380000000000006F
:100BE00000000FF01C381C381C381C000FE007F008
:100BF00000381C381C381C380FF0000000000000C2
:100C000000001FFC19CC11C401C001C001C001C00B
:100C100001C001C001C001C007F0000000000000D9
:100C200000001C701C701C701C701C701C701C70F0
:100C30001C701C701C701C700FE000000000000095
:100C400000001C701C701C701C701C701C701C70D0
:100C50001C701C700EE007C0038000000000000044
:100C600000001C1C1C1C1C1C1C1C1C1C1C9C1C9CFC
:100C70001C9C0FF80FF807700770000000000000C0
:100C800000001C701C701C700EE007C00380038005
:100C900007C00EE01C701C701C70000000000000FB
:100CA00000001C701C701C701C701C700EE007C0D3
:100CB00003800380038003800FE000000000000039
:100CC00000001FF81C381838107000E001C00380C5
:100CD00007000E081C181C381FF800000000000058
:100CE000000007F0070007000700070007000700E3
:100CF000070007000700070007F0000000000000E1
:100D00000000100018001C000E000700038001C046
:100D100000E000700038001C000700000000000028
:100D2000000007F00070007000700070007000702C
:100D3000007000700070007007F0000000000000FC
:100D4000018003C007E00E701C38000000000000A6
:100D50000000000000000000000000000000000093
:100D60000000000000000000000000000000000083
:100D7000000000000000000000007FFF7FFF000077
:100D800000001C001C00070007000000000000001D
:100D90000000000000000000000000000000000053
:100DA000000000000000000000000FE00070007074
:100DB0000FF01C701C701C700FD8000000000000A9
:100DC00000001E000E000E000E000FF00E380E3850
:100DD0000E380E380E380E381BF0000000000000F0
:100DE000000000000000000000000FE01C701C70FC
:100DF0001C001C001C701C700FE0000000000000B4
:100E0000000000F80070007000700FF01C701C7083
:100E10001C701C701C701C700FD8000000000000BB
:100E2000000000000000000000000FE01C701C70BB
:100E30001FF01C001C701C700FE000000000000080
:100E4000000003E007700770070007001FE01FE0C5
:100E500007000700070007001FC000000000000097
:100E6000000000000000000000000FD81C701C7083
:100E70001C701C700FF007F000701C700FE0000079
:100E800000001E000E000E000E000EF00F380F388E
:100E90000E380E380E380E381E38000000000000E4
:100EA000000001C001C001C000000FC001C001C0AE
:100EB00001C001C001C001C00FF800000000000027
:100EC0000000007000700070000003F000700070FF
:100ED00000700070007000701C700CF007E00000E3
:100EE00000001E000E000E000E000E380E700EE008
:100EF0000FC00EE00E700E381E380000000000001B
:100F000000000FC001C001C001C001C001C001C08C
:100F100001C001C001C001C00FF8000000000000C6
:100F2000000000000000000000001FF81C9C1C9C3A
:100F30001C9C1C9C1C9C1C9C1C9C00000000000019
:100F4000000000000000000000001FE01C701C708A
:100F50001C701C701C701C701C70000000000000D5
:100F6000000000000000000000000FE01C701C707A
:100F70001C701C701C701C700FE000000000000052
:100F8000000000000000000000001BF00E380E38CA
:100F90000E380E380E380FF00E000E001F00000045
:100FA000000000000000000000001FB038E038E042
:100FB00038E038E038E01FE000E000E001F0000039
:100FC000000000000000000000001EF00FF80F38C5
:100FD0000E000E000E000E001F00000000000000BA
:100FE000000000000000000000000FE01C301C307A
:100FF0000F8003E0187018700FE000000000000080
:10100000000000000100030007001FF007000700B8
:10101000070007000770077003E0000000000000F1
:10102000000000000000000000001C701C701C701C
:101030001C701C701C701C700FD800000000000099
:10104000000000000000000000001C701C701C70FC
:101050001C701C700EE007C0038000000000000040
:10106000000000000000000000001C1C1C1C1C1CD8
:101070001C9C1C9C0FF8077007700000000000000B
:10108000000000000000000000001CE01CE00FC099
:10109000078007800FC01CE01CE00000000000007B
:1010A000000000000000000000000E380E380E386E
:1010B0000E380E3807F003E000E001C01F8000008A
:1010C000000000000000000000001FE018E011C058
:1010D000038007000E201C601FE0000000000000DD
:1010E000000001F803800380038007001C001C003F
:1010F000070003800380038001F800000000000067
:1011000001C001C001C001C001C001C001C001C0D7
:1011100001C001C001C001C001C001C00000000049
:1011200000001F8001C001C001C000E0003800388D
:1011300000E001C001C001C01F80000000000000ED
:1011400000001F1C3B9C39DC38F800000000000048
:10115000000000000000000000000000000020323D
:10116000300A000000000000000000FFFE0001FF48
:10117000FF0003FFFF8001FFFF600CFFFEF01E0079
:1011800001F83F0001F83F0001F83F0001F83F007F
:1011900001F83F0001F83F0001F83F0001F83F006F
:1011A00001F83F0001F83F0001F83F0001F83F005F
:1011B00001F83F0001F83E000078380000182000D8
:1011C00000080000000020000000380000183E0069
:1011D00000783F0001F83F0001F83F0001F83F00B0
:1011E00001F83F0001F83F0001F83F0001F83F001F
:1011F00001F83F0001F83F0001F83F0001F83F000F
:1012000001F83F0001F83F0001F81E0000F00CFF5C
:10121000FE6001FFFF0003FFFF8001FFFF0000FFF2
:10122000FE000000000000000000000000000000C0
:1012300000000000000000000000000000000000AE
:101240000060000000F0000001F8000001F800005C
:1012500001F8000001F8000001F8000001F80000AA
:1012600001F8000001F8000001F8000001F800009A
:1012700001F8000001F8000001F8000001F800008A
:1012800000780000001800000008000000000000C6
:1012900000000000001800000078000001F80000C5
:1012A00001F8000001F8000001F8000001F800005A
:1012B00001F8000001F8000001F8000001F800004A
:1012C00001F8000001F8000001F8000001F800003A
:1012D00001F8000000F000000060000000000000C5
:1012E00000000000000000000000000000000000FE
:1012F0000000000000000000000000FFFE0001FFF1
:10130000FF0003FFFF8001FFFF6000FFFEF0000011
:1013100001F8000001F8000001F8000001F80000E9
:1013200001F8000001F8000001F8000001F80000D9
:1013300001F8000001F8000001F8000001F80000C9
:1013400001F8000001F80000007801FFFE1803FF1B
:10135000FF880FFFFFE027FFFFC039FFFF003E00BF
:1013600000003F0000003F0000003F0000003F0081
:1013700000003F0000003F0000003F0000003F0071
:1013800000003F0000003F0000003F0000003F0061
:1013900000003F0000003F0000001E0000000CFFA6
:1013A000FE0001FFFF0003FFFF8001FFFF0000FFC1
:1013B000FE0000000000000000000000000000002F
:1013C000000000FFFE0001FFFF0003FFFF8001FFA0
:1013D000FF6000FFFEF0000001F8000001F80000CF
:1013E00001F8000001F8000001F8000001F8000019
:1013F00001F8000001F8000001F8000001F8000009
:1014000001F8000001F8000001F8000001F80000F8
:10141000007801FFFE1803FFFF880FFFFFE007FFC2
:10142000FFC001FFFF1800000078000001F8000075
:1014300001F8000001F8000001F8000001F80000C8
:1014400001F8000001F8000001F8000001F80000B8
:1014500001F8000001F8000001F8000001F80000A8
:1014600001F8000000F000FFFE6001FFFF0003FF35
:10147000FF8001FFFF0000FFFE00000000000000F1
:10148000000000000000000000000000000000005C
:10149000000000000000000000600C0000F01E00D2
:1014A00001F83F0001F83F0001F83F0001F83F005C
:1014B00001F83F0001F83F0001F83F0001F83F004C
:1014C00001F83F0001F83F0001F83F0001F83F003C
:1014D00001F83F0001F83E00007839FFFE1823FFB5
:1014E000FF880FFFFFE007FFFFC001FFFF180000AC
:1014F0000078000001F8000001F8000001F8000089
:1015000001F8000001F8000001F8000001F80000F7
:1015100001F8000001F8000001F8000001F80000E7
:1015200001F8000001F8000001F8000000F00000E0
:10153000006000000000000000000000000000004B
:10154000000000000000000000000000000000009B
:10155000000000FFFE0001FFFF0003FFFF8001FF0E
:10156000FF000CFFFE001E0000003F0000003F00D7
:1015700000003F0000003F0000003F0000003F006F
:1015800000003F0000003F0000003F0000003F005F
:1015900000003F0000003F0000003F0000003E0050
:1015A000000039FFFE0023FFFF800FFFFFE007FF71
:1015B000FFC001FFFF1800000078000001F80000E4
:1015C00001F8000001F8000001F8000001F8000037
:1015D00001F8000001F8000001F8000001F8000027
:1015E00001F8000001F8000001F8000001F8000017
:1015F00001F8000000F000FFFE6001FFFF0003FFA4
:10160000FF8001FFFF0000FFFE000000000000005F
:101610000000000000000000000000FFFE0001FFCD
:10162000FF0003FFFF8001FFFF000CFFFE001E0014
:1016300000003F0000003F0000003F0000003F00AE
:1016400000003F0000003F0000003F0000003F009E
:1016500000003F0000003F0000003F0000003F008E
:1016600000003F0000003E00000039FFFE0023FFA5
:10167000FF800FFFFFE027FFFFC039FFFF183E008C
:1016800000783F0001F83F0001F83F0001F83F00FB
:1016900001F83F0001F83F0001F83F0001F83F006A
:1016A00001F83F0001F83F0001F83F0001F83F005A
:1016B00001F83F0001F83F0001F81E0000F00CFFA8
:1016C000FE6001FFFF0003FFFF8001FFFF0000FF3E
:1016D000FE0000000000000000000000000000000C
:1016E000000000FFFE0001FFFF0003FFFF8001FF7D
:1016F000FF6000FFFEF0000001F8000001F80000AC
:1017000001F8000001F8000001F8000001F80000F5
:1017100001F8000001F8000001F8000001F80000E5
:1017200001F8000001F8000001F8000001F80000D5
:101730000078000000180000000800000000000011
:1017400000000000001800000078000001F8000010
:1017500001F8000001F8000001F8000001F80000A5
:1017600001F8000001F8000001F8000001F8000095
:1017700001F8000001F8000001F8000001F8000085
:1017800001F8000000F00000006000000000000010
:101790000000000000000000000000000000000049
:1017A0000000000000000000000000FFFE0001FF3C
:1017B000FF0003FFFF8001FFFF600CFFFEF01E0033
:1017C00001F83F0001F83F0001F83F0001F83F0039
:1017D00001F83F0001F83F0001F83F0001F83F0029
:1017E00001F83F0001F83F0001F83F0001F83F0019
:1017F00001F83F0001F83E00007839FFFE1823FF92
:10180000FF880FFFFFE027FFFFC039FFFF183E00F2
:1018100000783F0001F83F0001F83F0001F83F0069
:1018200001F83F0001F83F0001F83F0001F83F00D8
:1018300001F83F0001F83F0001F83F0001F83F00C8
:1018400001F83F0001F83F0001F81E0000F00CFF16
:10185000FE6001FFFF0003FFFF8001FFFF0000FFAC
:10186000FE0000000000000000000000000000007A
:10187000000000FFFE0001FFFF0003FFFF8001FFEB
:10188000FF600CFFFEF01E0001F83F0001F83F0072
:1018900001F83F0001F83F0001F83F0001F83F0068
:1018A00001F83F0001F83F0001F83F0001F83F0058
:1018B00001F83F0001F83F0001F83F0001F83E0049
:1018C000007839FFFE1823FFFF880FFFFFE007FFB6
:1018D000FFC001FFFF1800000078000001F80000C1
:1018E00001F8000001F8000001F8000001F8000014
:1018F00001F8000001F8000001F8000001F8000004
:1019000001F8000001F8000001F8000001F80000F3
:1019100001F8000000F000FFFE6001FFFF0003FF80
:10192000FF8001FFFF0000FFFE000000000000003C
:10193000000000002100240027002A002D003000B4
:10194000330001010000040107010A010000220028
:10195000250028002B002E00310034000201000079
:10196000050108010B0100002000230026002900CA
:101970002C002F00320000010000030106010901C4
:1019800005050505070508080808020202020A0AFB
:101990000808040404040101010101010101030319
:1019A000030303030303040707070C0C0C0C0C0CC4
:1019B0000C0C0202020206060606060606060B0BC1
:1019C0000B0B0B0B0B0B0102102020080810204002
:1019D00010204080020102010804020101020408F3
:1019E0001020408080402010080402018004020181
:1019F00080402010080402010804020101020408CA
:101A00001020408001020408102040800000090AD4
:101A100002080B0C0D070603040100000000000083
:101A200000000000000000000000000000000000B6
:101A3000000000000000000011100F000000000076
:101A40000000000000000000000000000000000096
:101A5000000050102D2811241FBECFEFD1E2DEBFB1
:101A6000CDBF00E00CBF14E0A0E0B2E0EAEDFDE580
:101A700000E00BBF02C007900D92A43CB107D9F75C
:101A80001BBE17E0A4ECB4E001C01D92A43BB1075B
:101A9000E1F71AE1C6E5DAE104C02297FE010E94EF
:101AA000B02EC235D107C9F70E941D290C94EB2E28
:101AB0000C940000FB01DC0104C08D9101908019A1
:101AC00021F441505040C8F7881B990B0895AEE0AF
:101AD000B0E0EDE6FDE00C94C22E0E891F8986E091
:101AE0008C831A8309838FEF9FE79E838D839E01EA
:101AF000265E3F4FCE010196688D798DA9010E9427
:101B00008B0D2F813885020F131FF80110822E963E
:101B1000E4E00C94DE2EABE0B0E0E1E9FDE00C94F3
:101B2000B42E3C012B015A01FC01178216828381DD
:101B300081FD03C06FEF7FEFC6C19AE0892E1E01C1
:101B40000894211C311CF3012381F20123FD8591AE
:101B500023FF81912F01882309F4B2C1853239F422
:101B600023FD859123FF81912F01853229F490E097
:101B7000B3010E947E0FE7CF982FFF24EE24992413
:101B8000FFE1FF15D0F09B3269F09C3228F49032CF
:101B900059F0933291F40EC09D3249F0903369F4BC
:101BA00041E024C052E0F52A84E0F82A28C098E0F9
:101BB000F92A25C0E0E1FE2A22C0F7FC29C0892FBE
:101BC00080538A3070F4F6FE05C0989C902C112446
:101BD000980E15C0E89CE02C1124E80EF0E2FF2AD4
:101BE0000EC09E3229F4F6FC6BC140E4F42A07C013
:101BF0009C3619F450E8F52A02C0983649F4F201EF
:101C000023FD959123FF91912F01992309F0B8CFDE
:101C1000892F8554833018F08052833038F444E0A3
:101C200050E0A40EB51E5FE359830FC0933631F028
:101C3000933779F0933509F056C020C0F5018081C3
:101C4000898342E050E0A40EB51E610101E010E07E
:101C500012C0F501C080D180F6FC03C06FEF7FEFAA
:101C600002C0692D70E042E050E0A40EB51EC6012E
:101C70000E94730F8C015FE7F52214C0F501C0804C
:101C8000D180F6FC03C06FEF7FEF02C0692D70E0DA
:101C900042E050E0A40EB51EC6010E94680F8C0100
:101CA00050E8F52AF3FE07C01AC080E290E0B301C5
:101CB0000E947E0FEA948E2D90E008171907A8F372
:101CC0000EC0F601F7FC8591F7FE81916F0190E05F
:101CD000B3010E947E0FE110EA94015010400115FB
:101CE000110579F7EAC0943611F0993669F5F7FED7
:101CF00008C0F501208131814281538184E090E068
:101D00000AC0F501808191819C01442737FD4095EF
:101D1000542F82E090E0A80EB91E9FE6F92257FFEB
:101D200009C050954095309521953F4F4F4F5F4FDB
:101D3000E0E8FE2ACA01B901A1012AE030E00E94D0
:101D4000AA0FD82ED21840C0953729F41F2D1F7E18
:101D50002AE030E01DC01F2D197F9F3661F09037BB
:101D600020F4983509F0ACC00FC0903739F098379F
:101D700009F0A6C004C028E030E00AC0106114FDDC
:101D8000146020E130E004C014FD166020E132E070
:101D900017FF08C0F501608171818281938144E061
:101DA00050E008C0F50180819181BC0180E090E0A5
:101DB00042E050E0A40EB51EA1010E94AA0FD82E49
:101DC000D2188FE7F82EF122F6FE0BC05EEFF52257
:101DD000D91438F4F4FE07C0F2FC05C08FEEF822E7
:101DE00002C01D2D01C0192DF4FE0DC0FE01ED0D28
:101DF000F11D8081803319F499EEF92208C01F5F2C
:101E0000F2FE05C003C08F2D867809F01F5F0F2DED
:101E1000F3FC14C0F0FE0FC01E1510F09D2C0BC07B
:101E20009D2C9E0C911A1E2D06C080E290E0B301FD
:101E30000E947E0F1F5F1E15C0F304C01E1510F414
:101E4000E11A01C0EE2404FF0FC080E390E0B3016B
:101E50000E947E0F02FF1DC001FD03C088E790E0D5
:101E60000EC088E590E00BC0802F867891F001FFCE
:101E700002C08BE201C080E2F7FC8DE290E0B3018A
:101E80000E947E0F06C080E390E0B3010E947E0FA7
:101E90009A94D914C0F3DA94F101ED0DF11D80810B
:101EA00090E0B3010E947E0FDD20A9F706C080E21A
:101EB00090E0B3010E947E0FEA94EE20C1F743CE7A
:101EC000F30166817781CB012B96E2E10C94D02E51
:101ED000FC010590615070400110D8F780959095F5
:101EE0008E0F9F1F0895FC016150704001900110FA
:101EF000D8F7809590958E0F9F1F08950F931F938D
:101F0000CF93DF938C01EB018B8181FF1BC082FF9C
:101F10000DC02E813F818C819D812817390764F483
:101F2000E881F9810193F983E88306C0E885F985A2
:101F3000802F1995892B31F48E819F8101969F8383
:101F40008E8302C00FEF1FEFC801DF91CF911F9169
:101F50000F910895FA01AA27283051F1203181F11B
:101F6000E8946F936E7F6E5F7F4F8F4F9F4FAF4FA1
:101F7000B1E03ED0B4E03CD0670F781F891F9A1FB4
:101F8000A11D680F791F8A1F911DA11D6A0F711D68
:101F9000811D911DA11D20D009F468943F912AE074
:101FA000269F11243019305D3193DEF6CF0108955C
:101FB000462F4770405D4193B3E00FD0C9F7F6CF8D
:101FC000462F4F70405D4A3318F0495D31FD405255
:101FD000419302D0A9F7EACFB4E0A69597958795EB
:101FE00077956795BA95C9F70097610571050895CA
:101FF0009B01AC010A2E0694579547953795279576
:10200000BA95C9F7620F731F841F951FA01D08950D
:10201000EF92FF920F931F93CF93DF938C019B015D
:10202000EA0183E1E82EF12C37FD30C02231310581
:102030006CF5D7FD2BC0C131D10544F5C217D307CC
:102040002CF1CE010197821B930B62E070E00E949D
:102050005E2E620F731F6E9DF0016F9DF00D7E9DD1
:10206000F00D1124E853FD4F808191818017910775
:1020700079F0C217D30751F00817190718F4EB01CC
:102080002197D2CF9B012F5F3F4FCECFE0E0F0E012
:10209000CF01DF91CF911F910F91FF90EF900895A5
:1020A000CF92DF92EF92FF920F931F9384EC94E014
:1020B00063E049E250E028E230E007E210E076E237
:1020C000E72EF12CCC24DD240E94F7241F910F91E0
:1020D000FF90EF90DF90CF9008956F927F928F9254
:1020E0009F92AF92BF92CF92DF92EF92FF920F93A7
:1020F0001F93DF93CF93CDB7DEB7C055D0400FB657
:10210000F894DEBF0FBECDBF28EE33E040E050E0D4
:102110000E94712E922E832E742E652E622F732FA5
:10212000842F952F2CE330E040E050E00E94712E88
:10213000F22EE32ED42EC52E8DB79EB70A970FB67A
:10214000F8949EBF0FBE8DBF0DB71EB70F5F1F4F18
:102150005E010894A11CB11CEDB7FEB7B282A1824A
:1021600086E092E0F80193838283622F732F842F9D
:10217000952F2CE330E040E050E00E94712EF801F2
:10218000358324836F2D7E2D8D2D9C2D2CE330E007
:1021900040E050E00E94712EF80177836683692D3C
:1021A000782D872D962D2CE330E040E050E00E9402
:1021B000712EF801718760870E94670D8DB79EB7F9
:1021C0000A960FB6F8949EBF0FBE8DBFE4ECEE2EBC
:1021D000E4E0FE2EC70162E071E00E949620C70194
:1021E00040E154E860E070E00E945A1DC70160EED3
:1021F0007FEF0E94561DC701B50140EF50E02AEC69
:1022000030E000E010E00E946E22C7016AE775E04E
:102210000E949620C05BDF4F0FB6F894DEBF0FBE62
:10222000CDBFCF91DF911F910F91FF90EF90DF9085
:10223000CF90BF90AF909F908F907F906F900895B8
:10224000EF92FF920F931F93DF93CF93CDB7DEB73B
:10225000C055D0400FB6F894DEBF0FBECDBFF4EC32
:10226000EF2EF4E0FF2EC70162E071E00E9496209D
:102270008DB79EB708970FB6F8949EBF0FBE8DBF5F
:10228000EDB7FEB731968E010F5F1F4FADB7BEB7EA
:1022900012961C930E93119784E192E093838283AC
:1022A0008091030790910407A0910507B09106075C
:1022B00084839583A683B7830E94670D8DB79EB7ED
:1022C00008960FB6F8949EBF0FBE8DBFC70140E1C0
:1022D00054E860E070E00E945A1DC70160EE7FEF95
:1022E0000E94561DC701B80142E050E02AEC30E0E0
:1022F00000E010E00E946E22C7016AE775E00E94CC
:102300009620C05BDF4F0FB6F894DEBF0FBECDBF87
:10231000CF91DF911F910F91FF90EF9008956F92F1
:102320007F928F929F92AF92BF92CF92DF92EF9265
:10233000FF920F931F936C014B015A013901A801C1
:10234000662757FD6095762F0E945A1DC601B7017A
:102350000E94561D82E690E0889EA001899E500D45
:10236000989E500D1124415650409501A4E0220F33
:10237000331FAA95E1F72A0D3B1D20513040C601BD
:10238000B30100E010E00E946E221F910F91FF90B8
:10239000EF90DF90CF90BF90AF909F908F907F9005
:1023A0006F900895EF92FF920F931F93DB011D969C
:1023B0002D913C911E9722303105E1F023303105FB
:1023C0003CF42115310589F02130310539F50AC079
:1023D00024303105C9F0243031058CF02530310529
:1023E000E9F417C00FE110E007C000E010E0E0E101
:1023F000F4E818C000E010E0EFEFFFEF13C000E0DA
:1024000014E0E0EEF7E00EC000E110E0EFEFF7E0DF
:1024100009C000E010E8E0E0F8EF04C000E018EFC9
:10242000E0E0F0E01F966D917C91509751964D91B0
:102430005C91529712969D017F010E948F111F910E
:102440000F91FF90EF9008950F931F93DF93CF9319
:10245000CDB7DEB728970FB6F894DEBF0FBECDBF5D
:10246000FE01319688E0DF011D928A95E9F78BE045
:1024700094E065EF74E046E050E00E945A0D00974A
:1024800059F081E194E065EF74E046E050E00E948D
:102490005A0D009709F06FC0E1E0F5E08091010569
:1024A000909102058138910509F4329680819181DD
:1024B0008056934009F05FC08F010C5F1F4F8481ED
:1024C00087FF03C08F010B5F1F4FF8012085318507
:1024D000C901892F990F990B85958595079709F063
:1024E0004AC0808186958D5F8770823008F043C036
:1024F000C90160E070E040E150E00E940810FC017A
:102500000097C9F18091030790910407A0910507F6
:10251000B091060781879287A387B48785859685C2
:102520008430910534F48130910544F4892B19F0FD
:102530001DC00597D9F481E090E016C0D8011A9625
:102540008C91837090E08230910549F08330910541
:1025500019F0019759F406C082E090E005C083E0CD
:1025600090E002C084E090E09687858784EC94E058
:10257000BF010E94D21128960FB6F894DEBF0FBE9D
:10258000CDBFCF91DF911F910F9108958F929F92B0
:10259000AF92BF92CF92DF92EF92FF920F931F9371
:1025A000CF93DF930E943115BC01009721F080E0AA
:1025B00090E00E9424120E9474296093F5067093A3
:1025C000F6068093F7069093F8062091FD06309169
:1025D000FE064091FF0650910007261B370B480B63
:1025E000590B79E0220F331F441F551F7A95D1F7FD
:1025F000CA01B90128EE33E040E050E00E94712E9C
:10260000309302072093010701E02130300744F0A6
:1026100080E092E0821B930B909302078093010766
:1026200060910107709102078DE00E944C2A209171
:10263000F5063091F6064091F7065091F806809124
:10264000FD069091FE06A091FF06B091000749019A
:102650005A01881A990AAA0ABB0AD501C401885EE0
:102660009340A040B04060F02093FD063093FE06FA
:102670004093FF0650930007CA01B9010E946D10F4
:102680002091F5063091F6064091F7065091F80634
:102690008091F9069091FA06A091FB06B091FC0694
:1026A00049015A01881A990AAA0ABB0AD501C4012C
:1026B00080569A4EA040B04008F472C08091030743
:1026C00090910407A0910507B09106070196A11DFE
:1026D000B11D8093030790930407A0930507B0935F
:1026E00006072093F9063093FA064093FB065093B1
:1026F000FC060E942011C1EDD2E000E010E065E090
:10270000C62ED12C53E1E52EF12C6C817D81611513
:10271000710509F43EC020910307309104074091F0
:1027200005075091060788819981AA81BB81653090
:10273000710581F4281B390B4A0B5B0B22303105E4
:102740004105510534F11D821C82188219821A82BA
:102750001B8212C049015A01881A990AAA0ABB0AA7
:10276000D501C4010297A105B1059CF0DD82CC82A0
:10277000288339834A835B830E9DB0010F9D700DC2
:102780001E9D700D112468537D4F84EC94E00E94CF
:10279000D2110F5F1F4F63960131110509F0B5CFBC
:1027A000DF91CF911F910F91FF90EF90DF90CF902D
:1027B000BF90AF909F908F9008950F931F93CF93EA
:1027C000DF938DE061E00E942C2B8DE060E00E94A1
:1027D000DF2B8EE097E040E051EE60E070E026E015
:1027E0000E94B9268EE097E069E472E00E940A290F
:1027F0008EE097E06FE572E00E940A2984EC94E095
:1028000061E00E943D2384EC94E06AE775E00E9459
:10281000962084EC94E00E94C11C84EC94E060E07B
:1028200074E00E94561D84EC94E040E050E060E0CB
:1028300070E00E945A1D84EC94E060E070E040E09B
:1028400050E02FE331E007EC10E00E94441E8EE0E0
:1028500097E06BE772E00E940A290E94951580E0DC
:1028600092E067E174E045E30E94BB15882339F4E8
:102870008EE097E06BE972E00E940A29FFCF80E0CA
:102880000E94FC140E94F3148EE097E06BEB72E060
:102890000E940A2900E010E0C3E1D0E00C9FB001E3
:1028A0000D9F700D1C9F700D112468537D4F84EC9B
:1028B00094E00E94D2110F5F1F4F0131110571F793
:1028C0000E942011DF91CF911F910F910895809167
:1028D0000A0761E00E94DF2B78940895FF920F931E
:1028E0001F93082F162FF42EF89480910A0760E0AA
:1028F0000E94DF2B1F71102B1EBD0DB407FEFDCFF4
:10290000FEBC0DB407FEFDCF0E9467141F910F910E
:10291000FF9008951F93182F282F30E020763070F5
:1029200080910B0790E02817390799F080EA6FE152
:1029300043E00E946E14412F407640930B0750E015
:1029400085E0559547958A95E1F780E86FE10E940B
:102950006E141F9108950F931F93182F062F0E9436
:102960008A1480E4612F402F0E946E141F910F91F2
:1029700008950F931F93182F072F0E94AB14812FD8
:102980008F5F602F0E94AB141F910F9108950F93DA
:102990001F93182F062FF89480910A0760E00E9479
:1029A000DF2B802F8F71812B8EBD0DB407FEFDCFE5
:1029B0001EBC0DB407FEFDCF07FF04C01EBC0DB446
:1029C00007FEFDCF1EB50E946714812F1F910F9146
:1029D00008951F93182F0E948A1480E0612F0E948F
:1029E000C7141F91089588E30E94E914682F62605C
:1029F00088E30E94AB1408951F93182F88E30E9468
:102A0000E914682F616088E30E94AB14112319F464
:102A100081E0809309071F9108950F931F93CF932F
:102A2000DF93EC018B01F89480910A0760E00E942B
:102A3000DF2B8AE38EBD0DB407FEFDCF09C01EBC9F
:102A40000DB407FEFDCF8EB5F80181938F0121975C
:102A50002097A9F70E946714DF91CF911F910F91E2
:102A600008950F931F93DF93CF9300D000D0CDB77D
:102A7000DEB789E30E94E914882319F400E010E02E
:102A800048C060910C0770910D0780E00E94B91456
:102A900086E090E0BE016F5F7F4F0E940D15898137
:102AA0009A8190930D0780930C072B813C81E091D4
:102AB0000707F09108078D8187FD03C000E010E053
:102AC0000EC0245030408F010150104020173107B4
:102AD00008F48901C80165EF74E00E940D15F80142
:102AE000EB50FB4F108260910C0770910D078CE04A
:102AF0006130780724F08CE06FEF7BE003C0615019
:102B000070408CE00E94B91480E86EE140E40E94BD
:102B10006E14C80126960FB6F894DEBF0FBECDBF67
:102B2000CF91DF911F910F91089585E361E00E949D
:102B30002C2B85E361E00E94DF2B83E361E00E94A0
:102B40002C2B84E361E00E942C2B82E360E00E9446
:102B50002C2B83E361E00E94DF2B83E360E00E9483
:102B6000DF2B84E360E00E94DF2B80E58CBD8DB518
:102B700081608DBD08951F93CF93DF93EB01142FD8
:102B800090930807809307070CB406FC02C00E94CC
:102B9000951510930A07812F61E00E942C2B0E944B
:102BA00067148FEF60E04FEF0E946E1462E070E0F8
:102BB00080E090E00E94E42980E06DE10E94C7146B
:102BC0008823D1F310920D0710920C0788E060E083
:102BD00070E00E94B9148CE060E070E00E94B914CB
:102BE0008AE06FEF7BE00E94B91484E060E07CE053
:102BF0000E94B91486E06FEF71E10E94B91480E081
:102C00000E94FC1488E26FE370E30E94B91480E331
:102C100069EF77EF0E94B91480EC6DE00E94AB146D
:102C200081EC60E00E94AB1480E862EC42E30E9419
:102C30006E1486EC62E17CE00E94B91484EC62E1DF
:102C40000E94AB148AEC6CED75E00E94B91484EE1E
:102C500068810E94AB1485EE69810E94AB1482EEFC
:102C60006A810E94AB1483EE6B810E94AB1480EEEC
:102C70006C810E94AB1481EE6D810E94AB1484EDD7
:102C800060E10E94AB1486ED60E071E00E94B9142F
:102C90008AEE0E94E91480FDFBCF8FE10E948A1426
:102CA00080E86BE140EC0E946E1480E86FE144E044
:102CB0000E946E1482E70E94E914863008F08F5F4C
:102CC000DF91CF911F910895DC01542F283009F432
:102CD0007AC1293020F4213009F051C207C02031D7
:102CE00009F489C1213109F04AC29CC11F968C9117
:102CF0001F97843029F55896ED91FC91599792963B
:102D00009C919297613021F48081892B808304C04B
:102D100080819095982390835A96ED91FC915B97D2
:102D2000908193968C9193978095892380835A966E
:102D3000ED91FC915B97808193969C9193970AC04B
:102D40005096ED91FC9151975E969C915E97613003
:102D500021F48081892B808304C080819095982301
:102D600090835896ED91FC91599792969C919297E9
:102D700057FF04C08081892B808304C08081909597
:102D8000982390835A96ED91FC915B97908193964E
:102D90008C9193978095892380835A96ED91FC912D
:102DA0005B97808193969C919397892B8083252FA5
:102DB000332727FD30955896ED91FC9159979296BF
:102DC0009C91929726FF04C08081892B808304C048
:102DD00080819095982390835A96ED91FC915B9712
:102DE000908193968C9193978095892380835A96AE
:102DF000ED91FC915B97808193969C919397892BA1
:102E000080835896ED91FC91599792969C91929758
:102E100025FF04C08081892B808304C08081909528
:102E2000982390835A96ED91FC915B9790819396AD
:102E30008C9193978095892380835A96ED91FC918C
:102E40005B97808193969C919397892B808358966A
:102E5000ED91FC91599792969C91929724FF04C012
:102E60008081892B808304C08081909598239083F2
:102E70005A96ED91FC915B97908193968C919397E4
:102E80008095892380835A96ED91FC915B97808190
:102E900093969C919397892B80835896ED91FC9102
:102EA000599792969C91929723FF04C08081892B19
:102EB000808304C080819095982390835A96ED91E9
:102EC000FC915B97908193968C9193978095892341
:102ED00080835A96ED91FC915B97808193969C91AB
:102EE0009397892B80835896ED91FC9159979296F0
:102EF0009C91929722FF04C08081892B808304C01B
:102F000080819095982390835A96ED91FC915B97E0
:102F1000908193968C9193978095892380835A967C
:102F2000ED91FC915B97808193969C919397892B6F
:102F300080835896ED91FC91599792969C91929727
:102F400021FF04C08081892B808304C080819095FB
:102F5000982390835A96ED91FC915B97908193967C
:102F60008C9193978095892380835A96ED91FC915B
:102F70005B97808193969C919397892B8083589639
:102F8000ED91FC91599792969C91929720FF04C0E5
:102F90008081892B808304C08081909598239083C1
:102FA0005A96ED91FC915B97908193968C919397B3
:102FB0008095892380835A96ED91FC915B9780815F
:102FC00093969C912CC062B95296ED91FC915397C7
:102FD00090815F968C915F9780958923808352962C
:102FE000ED91FC91539780815F969C915F97892B1F
:102FF000808342B902C062B948B95296ED91FC9102
:10300000539790815F968C915F97809589238083F9
:103010005296ED91FC91539780815F969C91892BFC
:1030200080830895A59844B3262F332727FD309534
:10303000C90180719070880F991F482B44BB809103
:103040000201877E8093020140910201C901807CC8
:103050009070F3E095958795FA95E1F7482B4093AA
:1030600002018EB1847C8EB99EB1862F8C70880F40
:10307000880F6370860F20723070359527953595CF
:103080002795820F892B8EB95C96ED91FC915D9707
:10309000908194968C9194978095892380835C96F7
:1030A000ED91FC915D97808194969C919497892BEA
:1030B00080835C96ED91FC915D97908194968C91C4
:1030C00094978095892380835496ED91FC91559730
:1030D000908190968C919097809589238083A59874
:1030E00044B3252F332727FD3095C9018071907097
:1030F000880F991F482B44BB80910201877E8093E3
:10310000020140910201C901807C907063E09595B5
:1031100087956A95E1F7482B409302018EB1847C34
:103120008EB99EB1852F8C70880F880F5370850FD4
:10313000207230703595279535952795820F892B0C
:103140008EB95296ED91FC91539790815F968C9138
:103150005F978095892380835296ED91FC915397D8
:1031600080815F969C915F97892B80835496ED9127
:10317000FC915597808190969C91892B808308952E
:10318000AF92BF92CF92DF92EF92FF920F931F9375
:10319000CF93DF93EC015801690162B948B9C901C5
:1031A000B80120E130E040E050E00E94932E790128
:1031B0008A0120E030E040E050E0D4C0EA89FB8999
:1031C00090818F8D809589238083EA89FB89808116
:1031D0009F8D892B8083EA89FB8990818F8D8095D3
:1031E00089238083EA89FB8980819F8D892B808355
:1031F000EA89FB8990818F8D809589238083EA8974
:10320000FB8980819F8D892B8083EA89FB8990814E
:103210008F8D809589238083EA89FB8980819F8DAA
:10322000892B8083EA89FB8990818F8D8095892302
:103230008083EA89FB8980819F8D892B8083EA893D
:10324000FB8990818F8D809589238083EA89FB8912
:1032500080819F8D892B8083EA89FB8990818F8D66
:10326000809589238083EA89FB8980819F8D892BC2
:103270008083EA89FB8990818F8D80958923808363
:10328000EA89FB8980819F8D892B8083EA89FB896C
:1032900090818F8D809589238083EA89FB89808145
:1032A0009F8D892B8083EA89FB8990818F8D809502
:1032B00089238083EA89FB8980819F8D892B808384
:1032C000EA89FB8990818F8D809589238083EA89A3
:1032D000FB8980819F8D892B8083EA89FB8990817E
:1032E0008F8D809589238083EA89FB8980819F8DDA
:1032F000892B8083EA89FB8990818F8D8095892332
:103300008083EA89FB8980819F8D892B8083EA896C
:10331000FB8990818F8D809589238083EA89FB8941
:1033200080819F8D892B8083EA89FB8990818F8D95
:10333000809589238083EA89FB8980819F8D892BF1
:103340008083EA89FB8990818F8D80958923808392
:10335000EA89FB8980819F8D892B80832F5F3F4F76
:103360004F4F5F4F2E153F05400751070CF426CFF6
:10337000D601C5018F709070A070B0700097A10544
:10338000B10529F1C601B50120E130E040E050E08F
:103390000E94932E9B01AC01EE24FF24870112C0F2
:1033A000EA89FB8990818F8D809589238083EA89C2
:1033B000FB8980819F8D892B80830894E11CF11CFF
:1033C000011D111D2E153F05400751074CF7DF91D8
:1033D000CF911F910F91FF90EF90DF90CF90BF9012
:1033E000AF900895AF92BF92CF92DF92EF92FF928B
:1033F0000F931F93CF93DF93EC0159016A0162B9D8
:10340000CA01B90120E130E040E050E00E94932E73
:1034100079018A0120E030E040E050E0A4C1EA896F
:10342000FB8990818F8D809589238083EA89FB8930
:1034300080819F8D892B8083EA89FB8990818F8D84
:10344000809589238083EA89FB8980819F8D892BE0
:103450008083EA89FB8990818F8D80958923808381
:10346000EA89FB8980819F8D892B8083EA89FB898A
:1034700090818F8D809589238083EA89FB89808163
:103480009F8D892B8083EA89FB8990818F8D809520
:1034900089238083EA89FB8980819F8D892B8083A2
:1034A000EA89FB8990818F8D809589238083EA89C1
:1034B000FB8980819F8D892B8083EA89FB8990819C
:1034C0008F8D809589238083EA89FB8980819F8DF8
:1034D000892B8083EA89FB8990818F8D8095892350
:1034E0008083EA89FB8980819F8D892B8083EA898B
:1034F000FB8990818F8D809589238083EA89FB8960
:1035000080819F8D892B8083EA89FB8990818F8DB3
:10351000809589238083EA89FB8980819F8D892B0F
:103520008083EA89FB8990818F8D809589238083B0
:10353000EA89FB8980819F8D892B8083EA89FB89B9
:1035400090818F8D809589238083EA89FB89808192
:103550009F8D892B8083EA89FB8990818F8D80954F
:1035600089238083EA89FB8980819F8D892B8083D1
:10357000EA89FB8990818F8D809589238083EA89F0
:10358000FB8980819F8D892B8083EA89FB899081CB
:103590008F8D809589238083EA89FB8980819F8D27
:1035A000892B8083EA89FB8990818F8D809589237F
:1035B0008083EA89FB8980819F8D892B8083EA89BA
:1035C000FB8990818F8D809589238083EA89FB898F
:1035D00080819F8D892B8083EA89FB8990818F8DE3
:1035E000809589238083EA89FB8980819F8D892B3F
:1035F0008083EA89FB8990818F8D809589238083E0
:10360000EA89FB8980819F8D892B8083EA89FB89E8
:1036100090818F8D809589238083EA89FB898081C1
:103620009F8D892B8083EA89FB8990818F8D80957E
:1036300089238083EA89FB8980819F8D892B808300
:10364000EA89FB8990818F8D809589238083EA891F
:10365000FB8980819F8D892B8083EA89FB899081FA
:103660008F8D809589238083EA89FB8980819F8D56
:10367000892B8083EA89FB8990818F8D80958923AE
:103680008083EA89FB8980819F8D892B8083EA89E9
:10369000FB8990818F8D809589238083EA89FB89BE
:1036A00080819F8D892B8083EA89FB8990818F8D12
:1036B000809589238083EA89FB8980819F8D892B6E
:1036C0008083EA89FB8990818F8D8095892380830F
:1036D000EA89FB8980819F8D892B8083EA89FB8918
:1036E00090818F8D809589238083EA89FB898081F1
:1036F0009F8D892B8083EA89FB8990818F8D8095AE
:1037000089238083EA89FB8980819F8D892B80832F
:10371000EA89FB8990818F8D809589238083EA894E
:10372000FB8980819F8D892B8083EA89FB89908129
:103730008F8D809589238083EA89FB8980819F8D85
:10374000892B8083EA89FB8990818F8D80958923DD
:103750008083EA89FB8980819F8D892B80832F5FFD
:103760003F4F4F4F5F4F2E153F05400751070CF459
:1037700056CED601C5018F709070A070B0700097C2
:10378000A105B10591F1C601B50120E130E040E0AD
:1037900050E00E94932E9B01AC01EE24FF24870190
:1037A0001FC0EA89FB8990818F8D80958923808352
:1037B000EA89FB8980819F8D892B8083EA89FB8937
:1037C00090818F8D809589238083EA89FB89808110
:1037D0009F8D892B80830894E11CF11C011D111D14
:1037E0002E153F0540075107E4F6DF91CF911F9159
:1037F0000F91FF90EF90DF90CF90BF90AF90089522
:10380000DC01462F1E968C911E97813081F05096D8
:10381000ED91FC91519790815E968C915E97809589
:1038200089238083CD0160E01E962C9103C0CD01D9
:1038300060E021E00E94641608951F93CF93DF9308
:10384000EC01262F142F8E85813041F0E889F9890B
:1038500080819E8D892B8083CE0108C0CE0161E0DE
:10386000422F21E00E946416CE0161E0412F2E8597
:103870000E946416DF91CF911F910895EF92FF92FD
:103880000F931F938C017A010E94001C6F2D7727E4
:1038900067FD7A95C8014E2D0E941D1C1F910F9146
:1038A000FF90EF900895AF92BF92CF92DF92EF9288
:1038B000FF920F931F93CF93DF93EC017B01B42E04
:1038C000A52E69018C81813069F429853A85B90179
:1038D0006E197F092C193D09CA017C01B22EA32E55
:1038E00068018B018D85833021F5CE0160E2A7014F
:1038F0000E943E1CCE0161E24B2D5A2D0E943E1CBF
:10390000CE0160E5A7010E943E1CCE0162E54B2D71
:103910005A2D0E943E1CCE0161E5A6010E943E1C6C
:10392000CE0163E5A8010E943E1CCE0162E20E9426
:10393000001CDF91CF911F910F91FF90EF90DF90CE
:10394000CF90BF90AF9008950F931F93FC01848197
:10395000A581B68101851285882339F4CF0160E005
:1039600070E040E050E09D0107C0CF0160E070E0F2
:1039700040E050E098018D010E94531C1F910F916F
:103980000895EF92FF920F931F93CF93DF93EC0173
:10399000EC89FD89908188A1809589238083CE015F
:1039A0000E94A41C8E85813031F0E889F9898081DC
:1039B0009E8D892B80838E858031E1F469857A859F
:1039C0008B859C856F5F7F4F8F4F9F4F2D813E81F1
:1039D0004F8158852F5F3F4F4F4F5F4F0E942B2ED7
:1039E0008B019C01CE0160E070E040E050E00E945D
:1039F000C0184FC0883021F0EE24FF24870132C068
:103A000069857A858B859C856F5F7F4F8F4F9F4F30
:103A10002D813E814F8158852F5F3F4F4F4F5F4F24
:103A20000E942B2E9B01AC01CE0160E070E00E9451
:103A3000F2192FC02E85213021F0CE0160E040E048
:103A40000AC0CE0161E040E021E00E946416CE0190
:103A500061E040E02E850E9464160894E11CF11C90
:103A6000011D111D69857A858B859C856F5F7F4F50
:103A70008F4F9F4F2D813E814F8158852F5F3F4F44
:103A80004F4F5F4F0E942B2EE616F70608071907C7
:103A90008CF2EC89FD89808198A1892B8083DF914C
:103AA000CF911F910F91FF90EF900895FC017083CB
:103AB00061830895FC014F3F8FEF58078FEF680730
:103AC0008FEF780719F481E080AB0895BB27A72F0B
:103AD000962F852F8283438310AA0895462F672F40
:103AE0000E941D1C0895EF92FF920F931F93CF9396
:103AF000DF93EC018A01790137FF06C0F094E1946D
:103B0000F108F3946E197F09EC89FD89908188A1F1
:103B10008095892380839701260F371FCE01A80146
:103B20000E94531C8E85803199F4E889F98980813F
:103B30009E8D892B8083688149818701222717FD0B
:103B40002095322FCE0170E050E00E94C01823C0B3
:103B50008830A9F498818981981789F4E889F989CE
:103B600080819E8D892B808368819701442737FD52
:103B70004095542FCE0170E00E94F2190CC000E075
:103B800010E0CE01688149810E941D1C0F5F1F4F0C
:103B9000E016F106B4F7EC89FD89808198A1892BA4
:103BA0008083CE010E94A41CDF91CF911F910F91C1
:103BB000FF90EF900895EF92FF920F931F93CF9392
:103BC000DF93EC01DB01790137FF06C0F094E1944B
:103BD000F108F3944E195F09EC89FD89908188A161
:103BE0008095892380838701040F151FCE01BD01B5
:103BF0009D010E94531C8E85803199F4E889F989D2
:103C000080819E8D892B808368814981870122274D
:103C100017FD2095322FCE0170E050E00E94C018B1
:103C200023C08830A9F498818981981789F4E8899C
:103C3000F98980819E8D892B808368819701442733
:103C400037FD4095542FCE0170E00E94F2190CC050
:103C500000E010E0CE01688149810E941D1C0F5FC9
:103C60001F4FE016F106B4F7EC89FD89808198A119
:103C7000892B8083CE010E94A41CDF91CF911F91DC
:103C80000F91FF90EF9008958F929F92AF92BF9205
:103C9000CF92DF92EF92FF920F931F93CF93DF9318
:103CA0004C01EB017A01590168012617370714F41A
:103CB000E9015B01CE14DF041CF4C60167017C013D
:103CC00085010C1B1D0BC401BE01A70198010E94B8
:103CD000731DC401BE01A60198010E94731D8601D7
:103CE0000E191F09C401BE01A70198010E94DB1D26
:103CF000C401B501A70198010E94DB1DDF91CF919E
:103D00001F910F91FF90EF90DF90CF90BF90AF90F9
:103D10009F908F9008952F923F924F925F926F9253
:103D20007F928F929F92AF92BF92CF92DF92EF924B
:103D3000FF920F931F93DF93CF93CDB7DEB72C97EE
:103D40000FB6F894DEBF0FBECDBF9C878B875C8318
:103D50004B831901DC015496ED91FC9155979081AC
:103D600090968C919097809589238083D0968C91A2
:103D7000D097882309F020C114968C9114979C96B3
:103D80000C919C979D969C91E62EFF24882309F028
:103D900078C0202F30E021503040240F351F092FEC
:103DA00010E001501040020D131D8B859C856B8126
:103DB0007C81A1010E94531CEB85FC8584A586951E
:103DC0008695869525A5829FC001112426A5E21A15
:103DD000F1088E9D50018F9DB00C9E9DB00C11245A
:103DE00044E050E0A40EB51E882499243BC0AB8566
:103DF000BC859A96ED91FC919B97EA0DFB1DE49191
:103E000007E010E06E2E7724C301002E02C09595C6
:103E100087950A94E2F780FF0AC0EB85FC85F08065
:103E2000EE24618170E06E297F29CF010DC0AB8542
:103E3000BC851296DC901297CC2413966C91139744
:103E400070E06C297D29CD010E946E1D015010404B
:103E5000BFEF0F3F1B07C1F60894A11CB11C0894CB
:103E6000811C911CEB85FC8584A58695869586959D
:103E700025A5829FC00111248816990608F4B7CFA2
:103E80002DC1069506950695099F90011124AB85D5
:103E9000BC859E968C91E81AF1082E9D50012F9DAD
:103EA000B00C3E9DB00C1124E4E0F0E0AE0EBF1E5D
:103EB0004424552471C0C20170E00E944A2E8B0137
:103EC000020D131D30E0215030404B815C81240FE6
:103ED000351F8B859C85BA01A8010E94531CAB85B8
:103EE000BC859C968C91869586958695E82EFF24B8
:103EF0000894E108F1086701CA0CDB1C3BC0AB85E4
:103F0000BC859A96ED91FC919B97EC0DFD1DE4917B
:103F100000E010E04E2F50E05E834D838D819E8146
:103F2000002E02C0959587950A94E2F780FF0CC099
:103F3000AB85BC859C90882411966C91119770E09C
:103F400068297929CD0109C0EB85FC85728066243A
:103F5000638170E066297729CF010E946E1D0F5F93
:103F60001F4F08301105D1F60894E108F1080894B4
:103F7000C108D108FFEFEF16FFEFFF0609F0BFCF32
:103F8000AB85BC859C968C9186958695869590E0B0
:103F9000A80EB91E480E591EEB85FC8524A5622F7C
:103FA00066956695669585A5689FC001112448169B
:103FB000590608F480CF92C0AB85BC859C962C91A5
:103FC0009C972695269526959D968C919D97289F42
:103FD00090011124862F90E09E964C91841B9109AC
:103FE000289F5001299FB00C389FB00C1124E4E0A9
:103FF000F0E0AE0EBF1E3101222433245EC0C601A4
:104000008A0D9B1DAB85BC859A96ED91FC919B9783
:10401000E80FF91FE491B201B7E0EB2EF12C4E2F1F
:1040200050E058874F83CB0101969A8389838B8513
:104030009C85A30129813A8109851A850E94531C18
:104040008F8198850E2C02C0959587950A94E2F78A
:1040500080FF0DC0AB85BC859C90882411966C9127
:10406000119770E068297929CD010E946E1D08948E
:10407000E108F108BFEFEB16BFEFFB0619F069810D
:104080007A81D1CF0894C11CD11CE8E0F0E04E0E3B
:104090005F1EAB85BC859C968C9186958695869592
:1040A00090E0C816D9060CF4AACFA80EB91E089441
:1040B000211C311C0894611C711CEB85FC8585A5B5
:1040C00090E02816390650F44B805C80CC24DD2427
:1040D000A3014F5F5F4F5A874987DBCFAB85BC8514
:1040E0005496ED91FC915597808190969C91892BE7
:1040F00080838B859C850E94A41C2C960FB6F89417
:10410000DEBF0FBECDBFCF91DF911F910F91FF900A
:10411000EF90DF90CF90BF90AF909F908F907F9067
:104120006F905F904F903F902F900895DC01FB01BE
:104130009B967C936E939A9784919C968C939C9774
:10414000319684919D968C939D97319684919E96FD
:104150008C939E973196E4919F96EC9308952F92BD
:104160003F924F925F926F927F928F929F92AF9207
:10417000BF92CF92DF92EF92FF920F931F93DF9344
:10418000CF93CDB7DEB7E1970FB6F894DEBF0FBE81
:10419000CDBF99AB88ABC62E5A014901198F088F44
:1041A000B701882777FD8095982F0E94AE2C29E2D1
:1041B0003CE54FE85CE30E947C2D6E8F7F8F88A3E7
:1041C00099A3A8A9B9A95496ED91FC91559790810E
:1041D00090968C9190978095892380839C968C9162
:1041E0009C978695869586959D962C919D97829F06
:1041F000C0011124DD249E962C91C21AD1088C9DF9
:10420000F0018D9DF00D9C9DF00D11243496FE83E0
:10421000ED831F829501442737FD4095542F28A731
:1042200039A74AA75BA7C401AA2797FDA095BA2F73
:104230008CA79DA7AEA7BFA712C18B819C81AD8122
:10424000BE818A0F9B1FA8A9B9A99A96ED91FC91EE
:104250009B97E80FF91FC4902E8D3F8D48A159A15F
:10426000B901CA010E94782C6C8B7D8B8E8B9F8B41
:104270006CA17DA18EA19FA10E94AE2C7B018C011F
:104280002E8D3F8D48A159A1B901CA010E94DF2D91
:10429000688B798B8A8B9B8BC801B70128893989F8
:1042A0004A895B890E947C2D6C877D878E879F87DA
:1042B000C801B7012C893D894E895F890E947C2DF8
:1042C000688779878A879B8722243324EC2DF0E046
:1042D000FBA3EAA3A8A9B9A99C968C9190E0E88DCC
:1042E000F98DE89FB001E99F700DF89F700D1124C2
:1042F00029813A81620F731F620D731D882777FD34
:104300008095982F0E94AE2C4B015C0168A579A581
:104310008AA59BA50E94AE2C7B018C01C501B4012E
:104320002C893D894E895F890E947C2D2C853D8595
:104330004E855F850E94132C9B01AC01C801B7011B
:104340000E94142C0E947B2C2B013C016B016CA55C
:104350007DA58EA59FA50E94AE2C7B018C01C50179
:10436000B401288939894A895B890E947C2D9B0187
:10437000AC01688579858A859B850E94142C9B01F8
:10438000AC01C801B7010E94142C0E947B2C9B0138
:10439000AC018B010894C11CD11C0F5F1F4F88A971
:1043A00099A9B201A90196010E94531C87E090E0EF
:1043B000821993094AA15BA102C0559547958A9538
:1043C000E2F740FF0CC0A8A9B9A9BC91BB8F1A8E17
:1043D000E8A9F9A9618170E02A8D3B8D11C0A8A9D7
:1043E000B9A9D0968C91D097882379F41296BC9174
:1043F000BD8F1C8EE8A9F9A9638170E02C8D3D8DDD
:10440000622B732BCF010E946E1D0894211C311C5E
:1044100038E02316310409F05DCF4B815C814F5F9A
:104420005F4F5C834B8389819A8108969A83898345
:10443000A8A9B9A99C968C9186958695869590E0B9
:10444000EB81FC81E817F9070CF4F7CE2D813E8152
:10445000280F391F3E832D833F813F5F3F83A8A9EB
:10446000B9A99D968C91BF81B81780F41C821B82DC
:104470001A8219828B2F90E09C01442737FD4095CA
:10448000542F2CA33DA34EA35FA3D2CFA8A9B9A9B3
:104490005496ED91FC915597808190969C91892B33
:1044A000808388A999A90E94A41CE1960FB6F8946C
:1044B000DEBF0FBECDBFCF91DF911F910F91FF9057
:1044C000EF90DF90CF90BF90AF909F908F907F90B4
:1044D0006F905F904F903F902F9008952F923F9252
:1044E0004F925F926F927F928F929F92AF92BF9204
:1044F000CF92DF92EF92FF920F931F93CF93DF93B0
:104500005C01F62EE72EEA0119012801E62FF72FAC
:10451000DF010D900020E9F73D0108946108710862
:104520006E1A7F0AFC018481882321F5F7E24F305F
:104530005F0799F4D5011596CD91DC9116972196D8
:104540009C968C9190E0FC01E69DC001E79D900D4A
:10455000F69D900D1124C81BD90BF7E2CE30DF0772
:1045600009F048C0D50115966D917D918D919C9172
:10457000189722C0F7E24F305F0799F4D5011996DA
:10458000CD91DC911A9721969C968C9190E0FC013C
:10459000E69DC001E79D900DF69D900D1124C81B6E
:1045A000D90BF7E2CE30DF0729F5D50119966D91C9
:1045B0007D918D919C911C976F5F7F4F8F4F9F4F87
:1045C0009C962C9130E0F901E69D9001E79D300D1D
:1045D000F69D300D1124442737FD4095542F621B62
:1045E000730B840B950B22E030E040E050E00E941A
:1045F000932EE9018F2D9E2D9C014901CC24DD24B1
:1046000026C041145104A1F4D5019C968C9190E0F0
:10461000C89EA001C99E500DD89E500D11244C0F6C
:104620005D1FC501F401608191010E948B1E09C0CC
:10463000C501D4016C91AE019101860172010E9405
:10464000AF200894C11CD11C0894811C911CC61475
:10465000D704BCF2DF91CF911F910F91FF90EF90A3
:10466000DF90CF90BF90AF909F908F907F906F9092
:104670005F904F903F902F9008951F93CF93DF93BB
:10468000EC01162F8DA161E00E942C2B8EA161E020
:104690000E942C2B8FA161E00E942C2B88A561E049
:1046A0000E942C2B8E85813129F0813039F48F8541
:1046B000853021F489A561E00E942C2B8E85813004
:1046C00079F0813131F09FEF91B9803149F497B998
:1046D00007C088E18093010180E283BB8BE38DB941
:1046E0001C83EE89FF89808199A1892B808365E0F5
:1046F00070E080E090E00E94E429EE89FF899081DB
:1047000089A18095892380836FE070E080E090E04C
:104710000E94E429EE89FF89808199A1892B8083F9
:104720006FE070E080E090E00E94E429EC89FD8970
:10473000908188A18095892380838D85833009F0BD
:1047400044C1CE0165EE40EF58E70E943E1CCE0109
:1047500061E040E051E00E943E1CCE0162E040E09A
:1047600057E00E943E1CCE0163E040E350E10E940E
:104770003E1CCE0164E040E050E00E943E1CCE01B1
:1047800068E047E052E00E943E1CCE0169E040E054
:1047900050E00E943E1CCE016AE040E050E00E94E2
:1047A0003E1CCE016CE040E050E00E943E1CCE0179
:1047B0006DE040E050E00E943E1CCE016FE040E022
:1047C00050E00E943E1CCE0160E140E050E00E94BB
:1047D0003E1CCE0161E147E050E00E943E1CCE014C
:1047E00062E140E050E00E943E1CCE0163E140E007
:1047F00050E00E943E1CCE0167E041E050E00E9484
:104800003E1C68EC70E080E090E00E94E429CE015C
:1048100060E140E950E10E943E1CCE0161E147E2C7
:1048200052E00E943E1C62E370E080E090E00E9453
:10483000E429CE0162E14FE150E00E943E1C62E3B8
:1048400070E080E090E00E94E429CE0163E140E066
:1048500055E10E943E1CCE0169E247E250E00E9411
:104860003E1CCE016BE24DE050E00E943E1C62E334
:1048700070E080E090E00E94E429CE0160E240E038
:1048800050E00E943E1CCE0161E240E050E00E94F8
:104890003E1CCE0160E340E050E00E943E1CCE0191
:1048A00061E347E057E00E943E1CCE0162E347E02F
:1048B00053E00E943E1CCE0165E340E052E00E94BE
:1048C0003E1CCE0166E348E050E00E943E1CCE0153
:1048D00067E344E050E00E943E1CCE0168E340E004
:1048E00050E00E943E1CCE0169E347E057E00E9481
:1048F0003E1CCE016CE342E050E00E943E1CCE0123
:104900006DE344E05DE10E943E1CCE0160E540E0C5
:1049100050E00E943E1CCE0161E54FEE50E00E9447
:104920003E1CCE0162E540E050E00E943E1CCE01FC
:1049300063E54FE351E00E943E1CCE0160E640E09B
:1049400057EA0E943E1CCE0161E641E050E00E9421
:104950003E1CCE016AE640E050E00E943E1CCE01C3
:1049600060E840E050E00E943E1CCE0161E840E07B
:1049700050E00E943E1CCE0162E840E050E00E9400
:104980003E1CCE0163E840E050E00E943E1CCE0198
:1049900064E840E050E00E943E1CCE0165E840E043
:1049A00050E00E943E1CCE0160E940E150E00E94D0
:1049B0003E1CCE0162E940E056E00E943E1CCE0162
:1049C00067E043E351E00E943E1CEC89FD89808151
:1049D00098A1892B80838FEF888389831A821B8219
:1049E0001BA61AA618AADF91CF911F9108955F9276
:1049F0006F927F928F929F92AF92BF92CF92DF92EF
:104A0000EF92FF920F931F93DF93CF93CDB7DEB753
:104A1000C659D0400FB6F894DEBF0FBECDBF5C01C3
:104A2000762E942E652E822E532EDE015F96E7E7BA
:104A3000F4E08CE301900D928150E1F7DE01A55A7C
:104A4000BF4FEBE3F4E08CE301900D928150E1F76E
:104A5000DE011196EDE1F4E08EE101900D928150BE
:104A6000E1F7672D70E0AB01440F551F9E012F5FEA
:104A70003F4FF901E40FF51F868D978DA0E0B0E060
:104A8000F50185839683A783B087FE01E55AFF4F22
:104A9000E40FF51F80819181A0E0B0E0F5018187EE
:104AA0009287A387B487260F371FD9012C912687B9
:104AB000758695A286A207A3E0A6C1A6243019F4A4
:104AC00081E086872787F5019685953019F481E086
:104AD00086879787D5011E964C911E97413009F421
:104AE00084C0292D362DF901E058F64EE491F0E00E
:104AF000EE0FFF1FE45BF64E8591949151969C93C7
:104B00008E9350972A53364EF90184915E968C937A
:104B10005E97282D352DF901E058F64EE491F0E02E
:104B2000EE0FFF1FE45BF64E8591949153969C9394
:104B30008E9352972A53364EF90184915F968C9347
:104B40005F979801F801E058F64EE491F0E0EE0F1F
:104B5000FF1FE45BF64E8591949155969C938E933E
:104B600054972A53364EF901849190968C939097DE
:104B70009701F701E058F64EE491F0E0EE0FFF1FC9
:104B8000E45BF64E8591949157969C938E9356973D
:104B90002A53364EF901849191968C93413109F054
:104BA000A1C0C601F601E058F64EE4912E2F30E088
:104BB000220F331F245B364EF901A591B491F50104
:104BC000B58FA48F8A53964EFC019491F50194A35E
:104BD0008C91909598239C9388E061E00E942C2B07
:104BE00088E060E00E94DF2B7DC0292D362DF90181
:104BF000E058F64EE491F0E0EE0FFF1FE45BF64E56
:104C000085919491D50159969C938E9358972A53E8
:104C1000364EF901849192968C939297282D352DDA
:104C2000F901E058F64EE491F0E0EE0FFF1FE45B6F
:104C3000F64E859194915B969C938E935A972A5346
:104C4000364EF901849193968C9393979801F801CD
:104C5000E058F64EE491F0E0EE0FFF1FE45BF64EF5
:104C60008591949155969C938E9354972A53364EE2
:104C7000F901849190968C9390979701F701E058F1
:104C8000F64EE491F0E0EE0FFF1FE45BF64E8591E7
:104C9000949157969C938E9356972A53364EF901CA
:104CA000849191968C9391971F968C911F97843045
:104CB000C9F0A601C6018058964EFC018491282FA8
:104CC00030E0220F331F245B364EF9018591949119
:104CD00051969C938E9350974A53564EFA01849165
:104CE0005E968C93CA56DF4F0FB6F894DEBF0FBEA8
:104CF000CDBFCF91DF911F910F91FF90EF90DF908B
:104D0000CF90BF90AF909F908F907F906F905F906B
:104D10000895DC015C968C915C97FD01E80FF11D14
:104D2000E35AFF4F20815C968C915C9790E001964E
:104D30008F7390705C968C935C975696ED91FC9176
:104D4000579720835096ED91FC9151978081806414
:104D500080835B969C915B975C968C915C9798178F
:104D600039F45296ED91FC91539780818F7D808329
:104D70000895DF92EF92FF920F931F93CF93DF93EB
:104D8000EC017A018B01D22EE889F98982E08083D7
:104D9000403081EE580780E0680780E07807A1F096
:104DA00060E079E08DE390E0A80197010E94712E08
:104DB00021503040404050405695479537952795B3
:104DC00080E12030380798F0E889F989108260E89E
:104DD00074E88EE190E0A80197010E94712E2150A5
:104DE0003040404050405695479537952795EC8583
:104DF000FD853083EE85FF852083188EEC89FD8943
:104E0000D082EA89FB89808180618083EA89FB897D
:104E1000808188608083EA89FB89808180688083C3
:104E2000EA89FB8980818F7D8083DF91CF911F91FB
:104E30000F91FF90EF90DF900895FC01218D828DFE
:104E400030E0205C3F4F281B31092F733070C901BF
:104E50000895FC01918D828D981719F42FEF3FEF83
:104E600006C0828DE80FF11D858D282F30E0C90125
:104E70000895DC0159969C9159975A968C915A97AE
:104E8000981719F42FEF3FEF10C05A968C915A974C
:104E9000FD01E80FF11D958D5A968C915A978F5F01
:104EA0008F735A968C93292F30E0C9010895CF93C0
:104EB000DF93EC01888D882361F419C08C9185FF04
:104EC0000AC0E889F989808185FF05C0CE010E946A
:104ED0008926AA89BB898C9185FD05C0E889F98955
:104EE000808186FD04C00FB607FEE8CFF4CFDF91C6
:104EF000CF9108950F931F93CF93DF93EC01062F6B
:104F00009B8D8C8D981791F5E889F989808185FFB3
:104F10002DC0EE89FF896083E889F98980818064EA
:104F200080831DC00FB607FC08C0E889F98980811D
:104F300085FF03C0CE010E9489268C8D181791F33E
:104F40008B8DFE01E80FF11DE35AFF4F00831B8F8D
:104F5000EA89FB8980818062808381E0888F81E09B
:104F600090E0DF91CF911F910F9108951B8D1F5FEE
:104F70001F73E3CF80E798E2892B51F080E090E047
:104F8000892B31F00E947028882311F00E940000C4
:104F900080E090E0892B51F080E090E0892B31F0A7
:104FA0000E940000882311F00E94000080E090E041
:104FB000892B51F080E090E0892B31F00E940000B5
:104FC000882311F00E94000080E090E0892B51F0CE
:104FD00080E090E0892B31F00E940000882311F0DE
:104FE0000E94000008951F920F920FB60F920BB609
:104FF0000F9211242F938F939F93EF93FF93E09140
:105000001E07F0911F07808182FD16C0E0912407E2
:10501000F09125072081909127079F5F9F738091D2
:105020002807981771F0E0912707F0E0E25FF84F4A
:10503000258F9093270705C0E0912407F09125075D
:10504000E081FF91EF919F918F912F910F900BBE77
:105050000F900FBE0F901F9018951092110710928D
:10506000100788EE93E0A0E0B0E0809312079093E1
:105070001307A0931407B093150787EB94E0909360
:105080000F0780930E0785EC90E090931B078093A9
:105090001A0784EC90E090931D0780931C0780EC26
:1050A00090E090931F0780931E0781EC90E090930F
:1050B00021078093200782EC90E090932307809350
:1050C000220786EC90E090932507809324071092A6
:1050D0002707109228071092290710922A0708958F
:1050E0008EE097E00E941D2720E0892B09F021E047
:1050F000822F08951F920F920FB60F920BB60F9248
:1051000011242F933F934F935F936F937F938F93CC
:105110009F93AF93BF93EF93FF938EE097E00E942E
:105120008926FF91EF91BF91AF919F918F917F91D0
:105130006F915F914F913F912F910F900BBE0F9008
:105140000FBE0F901F901895CF92DF92EF92FF92B3
:105150000F931F93CF93DF937C016B018A01C0E013
:10516000D0E00FC0D6016D916D01D701ED91FC919A
:105170000190F081E02DC7011995C80FD91F01508A
:1051800010400115110571F7CE01DF91CF911F91EC
:105190000F91FF90EF90DF90CF900895EF92FF92E4
:1051A0000F931F938C01DC01ED91FC910190F08134
:1051B000E02D6DE019957C01D801ED91FC910190F5
:1051C000F081E02DC8016AE019959C012E0D3F1D6C
:1051D000C9011F910F91FF90EF900895CF93DF9336
:1051E000EC016115710519F420E030E00FC0DB011E
:1051F0000D900020E9F71197A61BB70BE881F98104
:105200000280F381E02DAD0119959C01C901DF9168
:10521000CF910895EF92FF920F931F937C010E940C
:10522000EE288C01C7010E94CE28080F191FC80163
:105230001F910F91FF90EF900895CF93DF930E94FD
:1052400082290E94DD13CAEBD7E20E94C612209782
:10525000E1F30E94BA27F9CF1F920F920FB60F9277
:1052600011242F933F938F939F93AF93BF9380917C
:10527000AF079091B007A091B107B091B2073091FC
:10528000B3070196A11DB11D232F2D5F2D3720F0EF
:105290002D570196A11DB11D2093B3078093AF0731
:1052A0009093B007A093B107B093B2078091AB077A
:1052B0009091AC07A091AD07B091AE070196A11DEA
:1052C000B11D8093AB079093AC07A093AD07B0934B
:1052D000AE07BF91AF919F918F913F912F910F900A
:1052E0000FBE0F901F9018958FB7F8942091AF07BD
:1052F0003091B0074091B1075091B2078FBFB9010B
:10530000CA010895789484B5826084BD84B58160B3
:1053100084BD85B5826085BD85B5816085BDEEE6BD
:10532000F0E0808181608083E1E8F0E0108280819C
:1053300082608083808181608083E0E8F0E080810A
:1053400081608083E1EBF0E0808184608083E0EB2A
:10535000F0E0808181608083E1E9F0E0808182601B
:105360008083808181608083E0E9F0E080818160DA
:105370008083E1EAF0E080818260808380818160C7
:105380008083E0EAF0E0808181608083E1E2F1E007
:10539000808182608083808181608083E0E2F1E0AF
:1053A000808181608083EAE7F0E08081846080838F
:1053B0008081826080838081816080838081806839
:1053C00080831092C1000895EF92FF920F931F9374
:1053D000CF93DF937B018C013FB7F8948091AB07AB
:1053E0009091AC07A091AD07B091AE0726B5A89BF0
:1053F00005C02F3F19F00196A11DB11D3FBFBA2F67
:10540000A92F982F8827820F911DA11DB11D52E051
:10541000880F991FAA1FBB1F5A95D1F7EC0130C006
:105420000E94122C3FB7F8948091AB079091AC0783
:10543000A091AD07B091AE0726B5A89B05C02F3F40
:1054400019F00196A11DB11D3FBFBA2FA92F982FAA
:105450008827820F911DA11DB11D32E0880F991F71
:10546000AA1FBB1F3A95D1F78C1B9D0B885E9340FA
:10547000B8F20894E108F10801091109C851DC4F9C
:10548000E114F1040105110559F6DF91CF911F9147
:105490000F91FF90EF9008951F93CF93DF93182FF4
:1054A000EB0161E00E942C2B209709F4CAC0CF3F8A
:1054B000D10509F4C9C0E12FF0E0E45FF54E849115
:1054C000893009F466C08A30B0F48430F1F1853057
:1054D00040F4823059F1833070F5813009F0AEC06C
:1054E00020C0873009F443C0883008F048C08630B7
:1054F00009F0A4C034C08D3009F478C08E3038F47F
:105500008B3009F45AC08C3008F066C04CC0803132
:1055100009F480C0813109F487C08F3009F08EC052
:105520006FC084B5806884BDC7BD92C084B58062F9
:1055300084BDC8BD8DC0809180008068809380004C
:10554000D0938900C093880083C0809180008062DE
:1055500080938000D0938B00C0938A0079C08091A3
:10556000B00080688093B000C093B30071C0809198
:10557000B00080628093B000C093B40069C0809195
:105580009000806880939000D0939900C093980019
:105590005FC080919000806280939000D0939B00C8
:1055A000C0939A0055C080919000886080939000CD
:1055B000D0939D00C0939C004BC08091A000806858
:1055C0008093A0008091A0008F7B8093A000D09357
:1055D000A900C093A8003CC08091A0008062809385
:1055E000A000D093AB00C093AA0032C08091A0006D
:1055F00088608093A000D093AD00C093AC0028C019
:1056000080912001806880932001D0932901C0936C
:1056100028011EC080912001806280932001D093D8
:105620002B01C0932A0114C08091200188608093CF
:105630002001D0932D01C0932C010AC0C038D105A0
:105640001CF4812F60E002C0812F61E00E94DF2BFB
:10565000DF91CF911F910895CF93DF93482F50E0B2
:10566000CA018A53964EFC0134914058564EFA01B5
:105670008491882369F190E0880F991FFC01EE5C0A
:10568000F64EA591B491FC01E45BF64EC591D49120
:10569000662351F42FB7F8948C91932F909589231A
:1056A0008C93888189230BC0623061F42FB7F89402
:1056B0008C91932F909589238C938881832B888359
:1056C0002FBF06C09FB7F8948C91832B8C939FBFFC
:1056D000DF91CF910895893009F449C08A30A0F450
:1056E000843051F1853040F4823079F1833000F517
:1056F000813009F063C026C0873079F1883098F591
:10570000863009F05BC025C08D3009F442C08E3070
:1057100028F48B30B1F18C30C0F52DC0803109F404
:1057200042C0813109F445C08F3009F047C037C00D
:10573000809180008F7703C0809180008F7D80935F
:105740008000089584B58F7702C084B58F7D84BDB5
:1057500008958091B0008F7703C08091B0008F7D55
:105760008093B0000895809190008F7707C080915A
:1057700090008F7D03C080919000877F8093900080
:1057800008958091A0008F7707C08091A0008F7D41
:1057900003C08091A000877F8093A000089580912E
:1057A00020018F7703C0809120018F7D809320019D
:1057B000089580912001877F809320010895FF92B2
:1057C0000F931F93F62E482F50E0CA01845F954E29
:1057D000FC012491CA018A53964EFC011491405851
:1057E000564EFA0104910023C9F0222319F0822FAA
:1057F0000E946B2BE02FF0E0EE0FFF1FE45BF64EF4
:10580000A591B4919FB7F894FF2021F48C91109545
:10581000812302C08C91812B8C939FBF1F910F918C
:10582000FF90089508955058BB27AA270ED019C19C
:10583000D9D030F0DED020F031F49F3F11F41EF4C7
:10584000CEC00EF4E095E7FBC4C0E92F2CD180F365
:10585000BA17620773078407950718F071F49EF56D
:1058600044C10EF4E0950B2EBA2FA02D0B01B90107
:1058700090010C01CA01A0011124FF27591B99F0C6
:10588000593F50F4503E68F11A16F040A22F232FD2
:10589000342F4427585FF3CF469537952795A79522
:1058A000F0405395C9F77EF41F16BA0B620B730BC9
:1058B000840BBAF09150A1F0FF0FBB1F661F771F3A
:1058C000881FC2F70EC0BA0F621F731F841F48F4EF
:1058D000879577956795B795F7959E3F08F0B3CF75
:1058E0009395880F08F09927EE0F9795879508955F
:1058F00088D0E395C7C004D06894B111F7C008956B
:10590000DAD088F09F5790F0B92F9927B751A0F0BF
:10591000D1F0660F771F881F991F1AF0BA95C9F743
:1059200012C0B13081F0E1D0B1E00895DEC0672F40
:10593000782F8827B85F39F0B93FCCF386957795F3
:105940006795B395D9F73EF49095809570956195DC
:105950007F4F8F4F9F4F0895E89409C097FB3EF407
:1059600090958095709561957F4F8F4F9F4F9923AC
:10597000A9F0F92F96E9BB279395F695879577952A
:105980006795B795F111F8CFFAF4BB0F11F460FFEA
:105990001BC06F5F7F4F8F4F9F4F16C0882311F042
:1059A00096E911C0772321F09EE8872F762F05C056
:1059B000662371F096E8862F70E060E02AF09A95F1
:1059C000660F771F881FDAF7880F9695879597F9E6
:1059D000089597F99F6780E870E060E008959FEF71
:1059E00080EC089500240A94161617061806090676
:1059F000089500240A941216130614060506089545
:105A0000EECF59D0E8F3E894EFEFBB273FE048EC46
:105A10005FE76B3D73078407950708F1FF279F57E2
:105A2000B25A6A4D7F40894CF04032F4BE5565420F
:105A3000704F8643FF4F0894EE1F915030F0BB0F1C
:105A4000661F771F881FFF1FEBCF9EE7882332F06A
:105A5000BB0F661F771F881F9A95C1F79395E09536
:105A6000B4C0092E0394000C11F4882352F0BB0F2C
:105A700040F4BF2B11F460FF04C06F5F7F4F8F4F66
:105A80009F4F0895EF93E0FF06C0A2EA2AED3FE0A2
:105A900049EC5FEBDADEE5DF0F90039401FC9058F0
:105AA000E4EEF0E0A2C057FD9058440F551F59F0A6
:105AB0005F3F71F04795880F97FB991F61F09F3FFB
:105AC00079F087950895121613061406551FF2CF24
:105AD0004695F1DF08C0161617061806991FF1CF74
